{
  "contractName": "FXAuctions",
  "abi": [
    {
      "inputs": [
        {
          "internalType": "uint256",
          "name": "_totalAuctionAmountUSD",
          "type": "uint256"
        },
        {
          "internalType": "uint256",
          "name": "_bidSubmitionCloseTime",
          "type": "uint256"
        },
        {
          "internalType": "uint256",
          "name": "_highestBidPrice",
          "type": "uint256"
        },
        {
          "internalType": "uint256",
          "name": "_lowestBidPrice",
          "type": "uint256"
        }
      ],
      "stateMutability": "nonpayable",
      "type": "constructor"
    },
    {
      "inputs": [],
      "name": "individualsCount",
      "outputs": [
        {
          "internalType": "uint256",
          "name": "",
          "type": "uint256"
        }
      ],
      "stateMutability": "view",
      "type": "function"
    },
    {
      "inputs": [],
      "name": "numberOfAuctioneers",
      "outputs": [
        {
          "internalType": "uint256",
          "name": "",
          "type": "uint256"
        }
      ],
      "stateMutability": "view",
      "type": "function"
    },
    {
      "inputs": [],
      "name": "primaryCount",
      "outputs": [
        {
          "internalType": "uint256",
          "name": "",
          "type": "uint256"
        }
      ],
      "stateMutability": "view",
      "type": "function"
    },
    {
      "inputs": [],
      "name": "secondaryConsumablesCount",
      "outputs": [
        {
          "internalType": "uint256",
          "name": "",
          "type": "uint256"
        }
      ],
      "stateMutability": "view",
      "type": "function"
    },
    {
      "inputs": [],
      "name": "secondaryFinishedCount",
      "outputs": [
        {
          "internalType": "uint256",
          "name": "",
          "type": "uint256"
        }
      ],
      "stateMutability": "view",
      "type": "function"
    },
    {
      "inputs": [],
      "name": "secondaryServicesCount",
      "outputs": [
        {
          "internalType": "uint256",
          "name": "",
          "type": "uint256"
        }
      ],
      "stateMutability": "view",
      "type": "function"
    },
    {
      "inputs": [],
      "name": "secondaryTradersCount",
      "outputs": [
        {
          "internalType": "uint256",
          "name": "",
          "type": "uint256"
        }
      ],
      "stateMutability": "view",
      "type": "function"
    },
    {
      "inputs": [],
      "name": "getAvailableBidBalance",
      "outputs": [
        {
          "internalType": "uint256",
          "name": "",
          "type": "uint256"
        }
      ],
      "stateMutability": "view",
      "type": "function"
    },
    {
      "inputs": [],
      "name": "getNumberOfBidders",
      "outputs": [
        {
          "internalType": "uint256",
          "name": "",
          "type": "uint256"
        }
      ],
      "stateMutability": "view",
      "type": "function"
    },
    {
      "inputs": [
        {
          "internalType": "string",
          "name": "category",
          "type": "string"
        },
        {
          "internalType": "uint256",
          "name": "id",
          "type": "uint256"
        }
      ],
      "name": "getBid",
      "outputs": [
        {
          "internalType": "uint256",
          "name": "",
          "type": "uint256"
        }
      ],
      "stateMutability": "view",
      "type": "function"
    },
    {
      "inputs": [
        {
          "internalType": "uint256",
          "name": "id",
          "type": "uint256"
        }
      ],
      "name": "getPrimaryBids",
      "outputs": [
        {
          "components": [
            {
              "internalType": "uint256",
              "name": "_id",
              "type": "uint256"
            },
            {
              "internalType": "string",
              "name": "_applicantName",
              "type": "string"
            },
            {
              "internalType": "string",
              "name": "_dateOfIncorporation",
              "type": "string"
            },
            {
              "internalType": "string",
              "name": "_tradingCommencementDate",
              "type": "string"
            },
            {
              "internalType": "string",
              "name": "_identificationNumber",
              "type": "string"
            },
            {
              "internalType": "string",
              "name": "_categoryOfBidder",
              "type": "string"
            },
            {
              "internalType": "string",
              "name": "_physicalAddress",
              "type": "string"
            },
            {
              "internalType": "string",
              "name": "_emailAddress",
              "type": "string"
            },
            {
              "internalType": "string",
              "name": "_contactNumber",
              "type": "string"
            },
            {
              "internalType": "string",
              "name": "_applicantBank",
              "type": "string"
            },
            {
              "internalType": "string",
              "name": "_auctionRef",
              "type": "string"
            },
            {
              "internalType": "string",
              "name": "_priorExhangeControlNumber",
              "type": "string"
            },
            {
              "internalType": "uint256",
              "name": "_date",
              "type": "uint256"
            },
            {
              "internalType": "string",
              "name": "_economicSector",
              "type": "string"
            },
            {
              "internalType": "string",
              "name": "_purposeOfFunds",
              "type": "string"
            },
            {
              "internalType": "string",
              "name": "_descriptionOfGoods",
              "type": "string"
            },
            {
              "internalType": "string",
              "name": "_ultimateBeneficiary",
              "type": "string"
            },
            {
              "internalType": "uint256",
              "name": "_bidAmountUSD",
              "type": "uint256"
            },
            {
              "internalType": "uint256",
              "name": "_bidExchangeRate",
              "type": "uint256"
            },
            {
              "internalType": "uint256",
              "name": "_zwlEquivalent",
              "type": "uint256"
            },
            {
              "internalType": "uint256",
              "name": "_currentBalanceZWL",
              "type": "uint256"
            },
            {
              "internalType": "uint256",
              "name": "_currentNostroBalanceUSD",
              "type": "uint256"
            }
          ],
          "internalType": "struct FXAuctions.FXBidForm",
          "name": "",
          "type": "tuple"
        }
      ],
      "stateMutability": "view",
      "type": "function"
    },
    {
      "inputs": [
        {
          "components": [
            {
              "internalType": "uint256",
              "name": "_id",
              "type": "uint256"
            },
            {
              "internalType": "string",
              "name": "_applicantName",
              "type": "string"
            },
            {
              "internalType": "string",
              "name": "_dateOfIncorporation",
              "type": "string"
            },
            {
              "internalType": "string",
              "name": "_tradingCommencementDate",
              "type": "string"
            },
            {
              "internalType": "string",
              "name": "_identificationNumber",
              "type": "string"
            },
            {
              "internalType": "string",
              "name": "_categoryOfBidder",
              "type": "string"
            },
            {
              "internalType": "string",
              "name": "_physicalAddress",
              "type": "string"
            },
            {
              "internalType": "string",
              "name": "_emailAddress",
              "type": "string"
            },
            {
              "internalType": "string",
              "name": "_contactNumber",
              "type": "string"
            },
            {
              "internalType": "string",
              "name": "_applicantBank",
              "type": "string"
            },
            {
              "internalType": "string",
              "name": "_auctionRef",
              "type": "string"
            },
            {
              "internalType": "string",
              "name": "_priorExhangeControlNumber",
              "type": "string"
            },
            {
              "internalType": "uint256",
              "name": "_date",
              "type": "uint256"
            },
            {
              "internalType": "string",
              "name": "_economicSector",
              "type": "string"
            },
            {
              "internalType": "string",
              "name": "_purposeOfFunds",
              "type": "string"
            },
            {
              "internalType": "string",
              "name": "_descriptionOfGoods",
              "type": "string"
            },
            {
              "internalType": "string",
              "name": "_ultimateBeneficiary",
              "type": "string"
            },
            {
              "internalType": "uint256",
              "name": "_bidAmountUSD",
              "type": "uint256"
            },
            {
              "internalType": "uint256",
              "name": "_bidExchangeRate",
              "type": "uint256"
            },
            {
              "internalType": "uint256",
              "name": "_zwlEquivalent",
              "type": "uint256"
            },
            {
              "internalType": "uint256",
              "name": "_currentBalanceZWL",
              "type": "uint256"
            },
            {
              "internalType": "uint256",
              "name": "_currentNostroBalanceUSD",
              "type": "uint256"
            }
          ],
          "internalType": "struct FXAuctions.FXBidForm",
          "name": "_fixBiForm",
          "type": "tuple"
        }
      ],
      "name": "submitBid",
      "outputs": [],
      "stateMutability": "nonpayable",
      "type": "function"
    }
  ],
  "bytecode": "0x608060405260006006556000600755600060085560006009556000600a556000600b556000600c553480156200003457600080fd5b506040516200698e3803806200698e83398181016040528101906200005a919062000104565b83600e8190555082600f81905550816010819055508060118190555083601360003373ffffffffffffffffffffffffffffffffffffffff1673ffffffffffffffffffffffffffffffffffffffff168152602001908152602001600020819055505050505062000176565b600080fd5b6000819050919050565b620000de81620000c9565b8114620000ea57600080fd5b50565b600081519050620000fe81620000d3565b92915050565b60008060008060808587031215620001215762000120620000c4565b5b60006200013187828801620000ed565b94505060206200014487828801620000ed565b93505060406200015787828801620000ed565b92505060606200016a87828801620000ed565b91505092959194509250565b61680880620001866000396000f3fe608060405234801561001057600080fd5b50600436106100b45760003560e01c806393e30ee11161007157806393e30ee11461017f578063a59f715c1461019b578063ac948003146101cb578063e56be999146101e9578063e94c05f514610207578063eabf653e14610225576100b4565b806305ded2d4146100b95780631c62e6e5146100d7578063306fa201146100f557806337dedd1b146101135780635973117f146101315780638dfa85651461014f575b600080fd5b6100c1610243565b6040516100ce9190615845565b60405180910390f35b6100df610249565b6040516100ec9190615845565b60405180910390f35b6100fd61024f565b60405161010a9190615845565b60405180910390f35b61011b610255565b6040516101289190615845565b60405180910390f35b61013961025b565b6040516101469190615845565b60405180910390f35b610169600480360381019061016491906158a0565b610261565b6040516101769190615bad565b60405180910390f35b610199600480360381019061019491906160b0565b610b62565b005b6101b560048036038101906101b091906160f9565b611cc7565b6040516101c29190615845565b60405180910390f35b6101d3615685565b6040516101e09190615845565b60405180910390f35b6101f16156cc565b6040516101fe9190615845565b60405180910390f35b61020f6156d2565b60405161021c9190615845565b60405180910390f35b61022d6156dc565b60405161023a9190615845565b60405180910390f35b600a5481565b60085481565b60075481565b60095481565b600c5481565b6102696156e2565b600080838152602001908152602001600020604051806102c0016040529081600082015481526020016001820180546102a190616184565b80601f01602080910402602001604051908101604052809291908181526020018280546102cd90616184565b801561031a5780601f106102ef5761010080835404028352916020019161031a565b820191906000526020600020905b8154815290600101906020018083116102fd57829003601f168201915b5050505050815260200160028201805461033390616184565b80601f016020809104026020016040519081016040528092919081815260200182805461035f90616184565b80156103ac5780601f10610381576101008083540402835291602001916103ac565b820191906000526020600020905b81548152906001019060200180831161038f57829003601f168201915b505050505081526020016003820180546103c590616184565b80601f01602080910402602001604051908101604052809291908181526020018280546103f190616184565b801561043e5780601f106104135761010080835404028352916020019161043e565b820191906000526020600020905b81548152906001019060200180831161042157829003601f168201915b5050505050815260200160048201805461045790616184565b80601f016020809104026020016040519081016040528092919081815260200182805461048390616184565b80156104d05780601f106104a5576101008083540402835291602001916104d0565b820191906000526020600020905b8154815290600101906020018083116104b357829003601f168201915b505050505081526020016005820180546104e990616184565b80601f016020809104026020016040519081016040528092919081815260200182805461051590616184565b80156105625780601f1061053757610100808354040283529160200191610562565b820191906000526020600020905b81548152906001019060200180831161054557829003601f168201915b5050505050815260200160068201805461057b90616184565b80601f01602080910402602001604051908101604052809291908181526020018280546105a790616184565b80156105f45780601f106105c9576101008083540402835291602001916105f4565b820191906000526020600020905b8154815290600101906020018083116105d757829003601f168201915b5050505050815260200160078201805461060d90616184565b80601f016020809104026020016040519081016040528092919081815260200182805461063990616184565b80156106865780601f1061065b57610100808354040283529160200191610686565b820191906000526020600020905b81548152906001019060200180831161066957829003601f168201915b5050505050815260200160088201805461069f90616184565b80601f01602080910402602001604051908101604052809291908181526020018280546106cb90616184565b80156107185780601f106106ed57610100808354040283529160200191610718565b820191906000526020600020905b8154815290600101906020018083116106fb57829003601f168201915b5050505050815260200160098201805461073190616184565b80601f016020809104026020016040519081016040528092919081815260200182805461075d90616184565b80156107aa5780601f1061077f576101008083540402835291602001916107aa565b820191906000526020600020905b81548152906001019060200180831161078d57829003601f168201915b50505050508152602001600a820180546107c390616184565b80601f01602080910402602001604051908101604052809291908181526020018280546107ef90616184565b801561083c5780601f106108115761010080835404028352916020019161083c565b820191906000526020600020905b81548152906001019060200180831161081f57829003601f168201915b50505050508152602001600b8201805461085590616184565b80601f016020809104026020016040519081016040528092919081815260200182805461088190616184565b80156108ce5780601f106108a3576101008083540402835291602001916108ce565b820191906000526020600020905b8154815290600101906020018083116108b157829003601f168201915b50505050508152602001600c8201548152602001600d820180546108f190616184565b80601f016020809104026020016040519081016040528092919081815260200182805461091d90616184565b801561096a5780601f1061093f5761010080835404028352916020019161096a565b820191906000526020600020905b81548152906001019060200180831161094d57829003601f168201915b50505050508152602001600e8201805461098390616184565b80601f01602080910402602001604051908101604052809291908181526020018280546109af90616184565b80156109fc5780601f106109d1576101008083540402835291602001916109fc565b820191906000526020600020905b8154815290600101906020018083116109df57829003601f168201915b50505050508152602001600f82018054610a1590616184565b80601f0160208091040260200160405190810160405280929190818152602001828054610a4190616184565b8015610a8e5780601f10610a6357610100808354040283529160200191610a8e565b820191906000526020600020905b815481529060010190602001808311610a7157829003601f168201915b50505050508152602001601082018054610aa790616184565b80601f0160208091040260200160405190810160405280929190818152602001828054610ad390616184565b8015610b205780601f10610af557610100808354040283529160200191610b20565b820191906000526020600020905b815481529060010190602001808311610b0357829003601f168201915b50505050508152602001601182015481526020016012820154815260200160138201548152602001601482015481526020016015820154815250509050919050565b42600f541115610b7157600080fd5b6011548161024001511015610bbb576040517f08c379a0000000000000000000000000000000000000000000000000000000008152600401610bb290616213565b60405180910390fd5b6010548161024001511115610c05576040517f08c379a0000000000000000000000000000000000000000000000000000000008152600401610bfc9061627f565b60405180910390fd5b8061028001518161026001511115610c52576040517f08c379a0000000000000000000000000000000000000000000000000000000008152600401610c4990616311565b60405180910390fd5b806102a001518161022001511015610c9f576040517f08c379a0000000000000000000000000000000000000000000000000000000008152600401610c96906163a3565b60405180910390fd5b6109c481610220015110158015610cbe57506207a12081610220015111155b8015610ce35750806102200151614e20108015610ce1575061c350816102200151105b155b610d22576040517f08c379a0000000000000000000000000000000000000000000000000000000008152600401610d19906163a3565b60405180910390fd5b604051602001610d319061641a565b604051602081830303815290604052805190602001208160a00151604051602001610d5c9190616460565b604051602081830303815290604052805190602001201415610fbc576006548160000181815250508060008060066000815480929190610d9b906164a6565b919050558152602001908152602001600020600082015181600001556020820151816001019080519060200190610dd3929190615789565b506040820151816002019080519060200190610df0929190615789565b506060820151816003019080519060200190610e0d929190615789565b506080820151816004019080519060200190610e2a929190615789565b5060a0820151816005019080519060200190610e47929190615789565b5060c0820151816006019080519060200190610e64929190615789565b5060e0820151816007019080519060200190610e81929190615789565b50610100820151816008019080519060200190610e9f929190615789565b50610120820151816009019080519060200190610ebd929190615789565b5061014082015181600a019080519060200190610edb929190615789565b5061016082015181600b019080519060200190610ef9929190615789565b5061018082015181600c01556101a082015181600d019080519060200190610f22929190615789565b506101c082015181600e019080519060200190610f40929190615789565b506101e082015181600f019080519060200190610f5e929190615789565b50610200820151816010019080519060200190610f7c929190615789565b5061022082015181601101556102408201518160120155610260820151816013015561028082015181601401556102a08201518160150155905050611cc4565b604051602001610fcb90616561565b604051602081830303815290604052805190602001208160a00151604051602001610ff69190616460565b60405160208183030381529060405280519060200120141561125757600754816000018181525050806001600060076000815480929190611036906164a6565b91905055815260200190815260200160002060008201518160000155602082015181600101908051906020019061106e929190615789565b50604082015181600201908051906020019061108b929190615789565b5060608201518160030190805190602001906110a8929190615789565b5060808201518160040190805190602001906110c5929190615789565b5060a08201518160050190805190602001906110e2929190615789565b5060c08201518160060190805190602001906110ff929190615789565b5060e082015181600701908051906020019061111c929190615789565b5061010082015181600801908051906020019061113a929190615789565b50610120820151816009019080519060200190611158929190615789565b5061014082015181600a019080519060200190611176929190615789565b5061016082015181600b019080519060200190611194929190615789565b5061018082015181600c01556101a082015181600d0190805190602001906111bd929190615789565b506101c082015181600e0190805190602001906111db929190615789565b506101e082015181600f0190805190602001906111f9929190615789565b50610200820151816010019080519060200190611217929190615789565b5061022082015181601101556102408201518160120155610260820151816013015561028082015181601401556102a08201518160150155905050611cc3565b604051602001611266906165c2565b604051602081830303815290604052805190602001208160a001516040516020016112919190616460565b6040516020818303038152906040528051906020012014156114f2576008548160000181815250508060026000600860008154809291906112d1906164a6565b919050558152602001908152602001600020600082015181600001556020820151816001019080519060200190611309929190615789565b506040820151816002019080519060200190611326929190615789565b506060820151816003019080519060200190611343929190615789565b506080820151816004019080519060200190611360929190615789565b5060a082015181600501908051906020019061137d929190615789565b5060c082015181600601908051906020019061139a929190615789565b5060e08201518160070190805190602001906113b7929190615789565b506101008201518160080190805190602001906113d5929190615789565b506101208201518160090190805190602001906113f3929190615789565b5061014082015181600a019080519060200190611411929190615789565b5061016082015181600b01908051906020019061142f929190615789565b5061018082015181600c01556101a082015181600d019080519060200190611458929190615789565b506101c082015181600e019080519060200190611476929190615789565b506101e082015181600f019080519060200190611494929190615789565b506102008201518160100190805190602001906114b2929190615789565b5061022082015181601101556102408201518160120155610260820151816013015561028082015181601401556102a08201518160150155905050611cc2565b60405160200161150190616623565b604051602081830303815290604052805190602001208160a0015160405160200161152c9190616460565b60405160208183030381529060405280519060200120141561178d5760095481600001818152505080600360006009600081548092919061156c906164a6565b9190505581526020019081526020016000206000820151816000015560208201518160010190805190602001906115a4929190615789565b5060408201518160020190805190602001906115c1929190615789565b5060608201518160030190805190602001906115de929190615789565b5060808201518160040190805190602001906115fb929190615789565b5060a0820151816005019080519060200190611618929190615789565b5060c0820151816006019080519060200190611635929190615789565b5060e0820151816007019080519060200190611652929190615789565b50610100820151816008019080519060200190611670929190615789565b5061012082015181600901908051906020019061168e929190615789565b5061014082015181600a0190805190602001906116ac929190615789565b5061016082015181600b0190805190602001906116ca929190615789565b5061018082015181600c01556101a082015181600d0190805190602001906116f3929190615789565b506101c082015181600e019080519060200190611711929190615789565b506101e082015181600f01908051906020019061172f929190615789565b5061020082015181601001908051906020019061174d929190615789565b5061022082015181601101556102408201518160120155610260820151816013015561028082015181601401556102a08201518160150155905050611cc1565b60405160200161179c90616684565b604051602081830303815290604052805190602001208160a001516040516020016117c79190616460565b604051602081830303815290604052805190602001201415611a2857600a548160000181815250508060046000600a6000815480929190611807906164a6565b91905055815260200190815260200160002060008201518160000155602082015181600101908051906020019061183f929190615789565b50604082015181600201908051906020019061185c929190615789565b506060820151816003019080519060200190611879929190615789565b506080820151816004019080519060200190611896929190615789565b5060a08201518160050190805190602001906118b3929190615789565b5060c08201518160060190805190602001906118d0929190615789565b5060e08201518160070190805190602001906118ed929190615789565b5061010082015181600801908051906020019061190b929190615789565b50610120820151816009019080519060200190611929929190615789565b5061014082015181600a019080519060200190611947929190615789565b5061016082015181600b019080519060200190611965929190615789565b5061018082015181600c01556101a082015181600d01908051906020019061198e929190615789565b506101c082015181600e0190805190602001906119ac929190615789565b506101e082015181600f0190805190602001906119ca929190615789565b506102008201518160100190805190602001906119e8929190615789565b5061022082015181601101556102408201518160120155610260820151816013015561028082015181601401556102a08201518160150155905050611cc0565b604051602001611a37906166e5565b604051602081830303815290604052805190602001208160a00151604051602001611a629190616460565b604051602081830303815290604052805190602001201415611cbf57600b548160000181815250508060056000600b6000815480929190611aa2906164a6565b919050558152602001908152602001600020600082015181600001556020820151816001019080519060200190611ada929190615789565b506040820151816002019080519060200190611af7929190615789565b506060820151816003019080519060200190611b14929190615789565b506080820151816004019080519060200190611b31929190615789565b5060a0820151816005019080519060200190611b4e929190615789565b5060c0820151816006019080519060200190611b6b929190615789565b5060e0820151816007019080519060200190611b88929190615789565b50610100820151816008019080519060200190611ba6929190615789565b50610120820151816009019080519060200190611bc4929190615789565b5061014082015181600a019080519060200190611be2929190615789565b5061016082015181600b019080519060200190611c00929190615789565b5061018082015181600c01556101a082015181600d019080519060200190611c29929190615789565b506101c082015181600e019080519060200190611c47929190615789565b506101e082015181600f019080519060200190611c65929190615789565b50610200820151816010019080519060200190611c83929190615789565b5061022082015181601101556102408201518160120155610260820151816013015561028082015181601401556102a082015181601501559050505b5b5b5b5b5b50565b6000611cd16156e2565b604051602001611ce09061641a565b6040516020818303038152906040528051906020012084604051602001611d079190616460565b604051602081830303815290604052805190602001201415612660576006548310611d67576040517f08c379a0000000000000000000000000000000000000000000000000000000008152600401611d5e90616746565b60405180910390fd5b600080848152602001908152602001600020604051806102c001604052908160008201548152602001600182018054611d9f90616184565b80601f0160208091040260200160405190810160405280929190818152602001828054611dcb90616184565b8015611e185780601f10611ded57610100808354040283529160200191611e18565b820191906000526020600020905b815481529060010190602001808311611dfb57829003601f168201915b50505050508152602001600282018054611e3190616184565b80601f0160208091040260200160405190810160405280929190818152602001828054611e5d90616184565b8015611eaa5780601f10611e7f57610100808354040283529160200191611eaa565b820191906000526020600020905b815481529060010190602001808311611e8d57829003601f168201915b50505050508152602001600382018054611ec390616184565b80601f0160208091040260200160405190810160405280929190818152602001828054611eef90616184565b8015611f3c5780601f10611f1157610100808354040283529160200191611f3c565b820191906000526020600020905b815481529060010190602001808311611f1f57829003601f168201915b50505050508152602001600482018054611f5590616184565b80601f0160208091040260200160405190810160405280929190818152602001828054611f8190616184565b8015611fce5780601f10611fa357610100808354040283529160200191611fce565b820191906000526020600020905b815481529060010190602001808311611fb157829003601f168201915b50505050508152602001600582018054611fe790616184565b80601f016020809104026020016040519081016040528092919081815260200182805461201390616184565b80156120605780601f1061203557610100808354040283529160200191612060565b820191906000526020600020905b81548152906001019060200180831161204357829003601f168201915b5050505050815260200160068201805461207990616184565b80601f01602080910402602001604051908101604052809291908181526020018280546120a590616184565b80156120f25780601f106120c7576101008083540402835291602001916120f2565b820191906000526020600020905b8154815290600101906020018083116120d557829003601f168201915b5050505050815260200160078201805461210b90616184565b80601f016020809104026020016040519081016040528092919081815260200182805461213790616184565b80156121845780601f1061215957610100808354040283529160200191612184565b820191906000526020600020905b81548152906001019060200180831161216757829003601f168201915b5050505050815260200160088201805461219d90616184565b80601f01602080910402602001604051908101604052809291908181526020018280546121c990616184565b80156122165780601f106121eb57610100808354040283529160200191612216565b820191906000526020600020905b8154815290600101906020018083116121f957829003601f168201915b5050505050815260200160098201805461222f90616184565b80601f016020809104026020016040519081016040528092919081815260200182805461225b90616184565b80156122a85780601f1061227d576101008083540402835291602001916122a8565b820191906000526020600020905b81548152906001019060200180831161228b57829003601f168201915b50505050508152602001600a820180546122c190616184565b80601f01602080910402602001604051908101604052809291908181526020018280546122ed90616184565b801561233a5780601f1061230f5761010080835404028352916020019161233a565b820191906000526020600020905b81548152906001019060200180831161231d57829003601f168201915b50505050508152602001600b8201805461235390616184565b80601f016020809104026020016040519081016040528092919081815260200182805461237f90616184565b80156123cc5780601f106123a1576101008083540402835291602001916123cc565b820191906000526020600020905b8154815290600101906020018083116123af57829003601f168201915b50505050508152602001600c8201548152602001600d820180546123ef90616184565b80601f016020809104026020016040519081016040528092919081815260200182805461241b90616184565b80156124685780601f1061243d57610100808354040283529160200191612468565b820191906000526020600020905b81548152906001019060200180831161244b57829003601f168201915b50505050508152602001600e8201805461248190616184565b80601f01602080910402602001604051908101604052809291908181526020018280546124ad90616184565b80156124fa5780601f106124cf576101008083540402835291602001916124fa565b820191906000526020600020905b8154815290600101906020018083116124dd57829003601f168201915b50505050508152602001600f8201805461251390616184565b80601f016020809104026020016040519081016040528092919081815260200182805461253f90616184565b801561258c5780601f106125615761010080835404028352916020019161258c565b820191906000526020600020905b81548152906001019060200180831161256f57829003601f168201915b505050505081526020016010820180546125a590616184565b80601f01602080910402602001604051908101604052809291908181526020018280546125d190616184565b801561261e5780601f106125f35761010080835404028352916020019161261e565b820191906000526020600020905b81548152906001019060200180831161260157829003601f168201915b50505050508152602001601182015481526020016012820154815260200160138201548152602001601482015481526020016015820154815250509050615631565b60405160200161266f90616561565b60405160208183030381529060405280519060200120846040516020016126969190616460565b604051602081830303815290604052805190602001201415612ff05760075483106126f6576040517f08c379a00000000000000000000000000000000000000000000000000000000081526004016126ed90616746565b60405180910390fd5b60016000848152602001908152602001600020604051806102c00160405290816000820154815260200160018201805461272f90616184565b80601f016020809104026020016040519081016040528092919081815260200182805461275b90616184565b80156127a85780601f1061277d576101008083540402835291602001916127a8565b820191906000526020600020905b81548152906001019060200180831161278b57829003601f168201915b505050505081526020016002820180546127c190616184565b80601f01602080910402602001604051908101604052809291908181526020018280546127ed90616184565b801561283a5780601f1061280f5761010080835404028352916020019161283a565b820191906000526020600020905b81548152906001019060200180831161281d57829003601f168201915b5050505050815260200160038201805461285390616184565b80601f016020809104026020016040519081016040528092919081815260200182805461287f90616184565b80156128cc5780601f106128a1576101008083540402835291602001916128cc565b820191906000526020600020905b8154815290600101906020018083116128af57829003601f168201915b505050505081526020016004820180546128e590616184565b80601f016020809104026020016040519081016040528092919081815260200182805461291190616184565b801561295e5780601f106129335761010080835404028352916020019161295e565b820191906000526020600020905b81548152906001019060200180831161294157829003601f168201915b5050505050815260200160058201805461297790616184565b80601f01602080910402602001604051908101604052809291908181526020018280546129a390616184565b80156129f05780601f106129c5576101008083540402835291602001916129f0565b820191906000526020600020905b8154815290600101906020018083116129d357829003601f168201915b50505050508152602001600682018054612a0990616184565b80601f0160208091040260200160405190810160405280929190818152602001828054612a3590616184565b8015612a825780601f10612a5757610100808354040283529160200191612a82565b820191906000526020600020905b815481529060010190602001808311612a6557829003601f168201915b50505050508152602001600782018054612a9b90616184565b80601f0160208091040260200160405190810160405280929190818152602001828054612ac790616184565b8015612b145780601f10612ae957610100808354040283529160200191612b14565b820191906000526020600020905b815481529060010190602001808311612af757829003601f168201915b50505050508152602001600882018054612b2d90616184565b80601f0160208091040260200160405190810160405280929190818152602001828054612b5990616184565b8015612ba65780601f10612b7b57610100808354040283529160200191612ba6565b820191906000526020600020905b815481529060010190602001808311612b8957829003601f168201915b50505050508152602001600982018054612bbf90616184565b80601f0160208091040260200160405190810160405280929190818152602001828054612beb90616184565b8015612c385780601f10612c0d57610100808354040283529160200191612c38565b820191906000526020600020905b815481529060010190602001808311612c1b57829003601f168201915b50505050508152602001600a82018054612c5190616184565b80601f0160208091040260200160405190810160405280929190818152602001828054612c7d90616184565b8015612cca5780601f10612c9f57610100808354040283529160200191612cca565b820191906000526020600020905b815481529060010190602001808311612cad57829003601f168201915b50505050508152602001600b82018054612ce390616184565b80601f0160208091040260200160405190810160405280929190818152602001828054612d0f90616184565b8015612d5c5780601f10612d3157610100808354040283529160200191612d5c565b820191906000526020600020905b815481529060010190602001808311612d3f57829003601f168201915b50505050508152602001600c8201548152602001600d82018054612d7f90616184565b80601f0160208091040260200160405190810160405280929190818152602001828054612dab90616184565b8015612df85780601f10612dcd57610100808354040283529160200191612df8565b820191906000526020600020905b815481529060010190602001808311612ddb57829003601f168201915b50505050508152602001600e82018054612e1190616184565b80601f0160208091040260200160405190810160405280929190818152602001828054612e3d90616184565b8015612e8a5780601f10612e5f57610100808354040283529160200191612e8a565b820191906000526020600020905b815481529060010190602001808311612e6d57829003601f168201915b50505050508152602001600f82018054612ea390616184565b80601f0160208091040260200160405190810160405280929190818152602001828054612ecf90616184565b8015612f1c5780601f10612ef157610100808354040283529160200191612f1c565b820191906000526020600020905b815481529060010190602001808311612eff57829003601f168201915b50505050508152602001601082018054612f3590616184565b80601f0160208091040260200160405190810160405280929190818152602001828054612f6190616184565b8015612fae5780601f10612f8357610100808354040283529160200191612fae565b820191906000526020600020905b815481529060010190602001808311612f9157829003601f168201915b50505050508152602001601182015481526020016012820154815260200160138201548152602001601482015481526020016015820154815250509050615630565b604051602001612fff906165c2565b60405160208183030381529060405280519060200120846040516020016130269190616460565b604051602081830303815290604052805190602001201415613980576008548310613086576040517f08c379a000000000000000000000000000000000000000000000000000000000815260040161307d90616746565b60405180910390fd5b60026000848152602001908152602001600020604051806102c0016040529081600082015481526020016001820180546130bf90616184565b80601f01602080910402602001604051908101604052809291908181526020018280546130eb90616184565b80156131385780601f1061310d57610100808354040283529160200191613138565b820191906000526020600020905b81548152906001019060200180831161311b57829003601f168201915b5050505050815260200160028201805461315190616184565b80601f016020809104026020016040519081016040528092919081815260200182805461317d90616184565b80156131ca5780601f1061319f576101008083540402835291602001916131ca565b820191906000526020600020905b8154815290600101906020018083116131ad57829003601f168201915b505050505081526020016003820180546131e390616184565b80601f016020809104026020016040519081016040528092919081815260200182805461320f90616184565b801561325c5780601f106132315761010080835404028352916020019161325c565b820191906000526020600020905b81548152906001019060200180831161323f57829003601f168201915b5050505050815260200160048201805461327590616184565b80601f01602080910402602001604051908101604052809291908181526020018280546132a190616184565b80156132ee5780601f106132c3576101008083540402835291602001916132ee565b820191906000526020600020905b8154815290600101906020018083116132d157829003601f168201915b5050505050815260200160058201805461330790616184565b80601f016020809104026020016040519081016040528092919081815260200182805461333390616184565b80156133805780601f1061335557610100808354040283529160200191613380565b820191906000526020600020905b81548152906001019060200180831161336357829003601f168201915b5050505050815260200160068201805461339990616184565b80601f01602080910402602001604051908101604052809291908181526020018280546133c590616184565b80156134125780601f106133e757610100808354040283529160200191613412565b820191906000526020600020905b8154815290600101906020018083116133f557829003601f168201915b5050505050815260200160078201805461342b90616184565b80601f016020809104026020016040519081016040528092919081815260200182805461345790616184565b80156134a45780601f10613479576101008083540402835291602001916134a4565b820191906000526020600020905b81548152906001019060200180831161348757829003601f168201915b505050505081526020016008820180546134bd90616184565b80601f01602080910402602001604051908101604052809291908181526020018280546134e990616184565b80156135365780601f1061350b57610100808354040283529160200191613536565b820191906000526020600020905b81548152906001019060200180831161351957829003601f168201915b5050505050815260200160098201805461354f90616184565b80601f016020809104026020016040519081016040528092919081815260200182805461357b90616184565b80156135c85780601f1061359d576101008083540402835291602001916135c8565b820191906000526020600020905b8154815290600101906020018083116135ab57829003601f168201915b50505050508152602001600a820180546135e190616184565b80601f016020809104026020016040519081016040528092919081815260200182805461360d90616184565b801561365a5780601f1061362f5761010080835404028352916020019161365a565b820191906000526020600020905b81548152906001019060200180831161363d57829003601f168201915b50505050508152602001600b8201805461367390616184565b80601f016020809104026020016040519081016040528092919081815260200182805461369f90616184565b80156136ec5780601f106136c1576101008083540402835291602001916136ec565b820191906000526020600020905b8154815290600101906020018083116136cf57829003601f168201915b50505050508152602001600c8201548152602001600d8201805461370f90616184565b80601f016020809104026020016040519081016040528092919081815260200182805461373b90616184565b80156137885780601f1061375d57610100808354040283529160200191613788565b820191906000526020600020905b81548152906001019060200180831161376b57829003601f168201915b50505050508152602001600e820180546137a190616184565b80601f01602080910402602001604051908101604052809291908181526020018280546137cd90616184565b801561381a5780601f106137ef5761010080835404028352916020019161381a565b820191906000526020600020905b8154815290600101906020018083116137fd57829003601f168201915b50505050508152602001600f8201805461383390616184565b80601f016020809104026020016040519081016040528092919081815260200182805461385f90616184565b80156138ac5780601f10613881576101008083540402835291602001916138ac565b820191906000526020600020905b81548152906001019060200180831161388f57829003601f168201915b505050505081526020016010820180546138c590616184565b80601f01602080910402602001604051908101604052809291908181526020018280546138f190616184565b801561393e5780601f106139135761010080835404028352916020019161393e565b820191906000526020600020905b81548152906001019060200180831161392157829003601f168201915b5050505050815260200160118201548152602001601282015481526020016013820154815260200160148201548152602001601582015481525050905061562f565b60405160200161398f90616623565b60405160208183030381529060405280519060200120846040516020016139b69190616460565b604051602081830303815290604052805190602001201415614310576009548310613a16576040517f08c379a0000000000000000000000000000000000000000000000000000000008152600401613a0d90616746565b60405180910390fd5b60036000848152602001908152602001600020604051806102c001604052908160008201548152602001600182018054613a4f90616184565b80601f0160208091040260200160405190810160405280929190818152602001828054613a7b90616184565b8015613ac85780601f10613a9d57610100808354040283529160200191613ac8565b820191906000526020600020905b815481529060010190602001808311613aab57829003601f168201915b50505050508152602001600282018054613ae190616184565b80601f0160208091040260200160405190810160405280929190818152602001828054613b0d90616184565b8015613b5a5780601f10613b2f57610100808354040283529160200191613b5a565b820191906000526020600020905b815481529060010190602001808311613b3d57829003601f168201915b50505050508152602001600382018054613b7390616184565b80601f0160208091040260200160405190810160405280929190818152602001828054613b9f90616184565b8015613bec5780601f10613bc157610100808354040283529160200191613bec565b820191906000526020600020905b815481529060010190602001808311613bcf57829003601f168201915b50505050508152602001600482018054613c0590616184565b80601f0160208091040260200160405190810160405280929190818152602001828054613c3190616184565b8015613c7e5780601f10613c5357610100808354040283529160200191613c7e565b820191906000526020600020905b815481529060010190602001808311613c6157829003601f168201915b50505050508152602001600582018054613c9790616184565b80601f0160208091040260200160405190810160405280929190818152602001828054613cc390616184565b8015613d105780601f10613ce557610100808354040283529160200191613d10565b820191906000526020600020905b815481529060010190602001808311613cf357829003601f168201915b50505050508152602001600682018054613d2990616184565b80601f0160208091040260200160405190810160405280929190818152602001828054613d5590616184565b8015613da25780601f10613d7757610100808354040283529160200191613da2565b820191906000526020600020905b815481529060010190602001808311613d8557829003601f168201915b50505050508152602001600782018054613dbb90616184565b80601f0160208091040260200160405190810160405280929190818152602001828054613de790616184565b8015613e345780601f10613e0957610100808354040283529160200191613e34565b820191906000526020600020905b815481529060010190602001808311613e1757829003601f168201915b50505050508152602001600882018054613e4d90616184565b80601f0160208091040260200160405190810160405280929190818152602001828054613e7990616184565b8015613ec65780601f10613e9b57610100808354040283529160200191613ec6565b820191906000526020600020905b815481529060010190602001808311613ea957829003601f168201915b50505050508152602001600982018054613edf90616184565b80601f0160208091040260200160405190810160405280929190818152602001828054613f0b90616184565b8015613f585780601f10613f2d57610100808354040283529160200191613f58565b820191906000526020600020905b815481529060010190602001808311613f3b57829003601f168201915b50505050508152602001600a82018054613f7190616184565b80601f0160208091040260200160405190810160405280929190818152602001828054613f9d90616184565b8015613fea5780601f10613fbf57610100808354040283529160200191613fea565b820191906000526020600020905b815481529060010190602001808311613fcd57829003601f168201915b50505050508152602001600b8201805461400390616184565b80601f016020809104026020016040519081016040528092919081815260200182805461402f90616184565b801561407c5780601f106140515761010080835404028352916020019161407c565b820191906000526020600020905b81548152906001019060200180831161405f57829003601f168201915b50505050508152602001600c8201548152602001600d8201805461409f90616184565b80601f01602080910402602001604051908101604052809291908181526020018280546140cb90616184565b80156141185780601f106140ed57610100808354040283529160200191614118565b820191906000526020600020905b8154815290600101906020018083116140fb57829003601f168201915b50505050508152602001600e8201805461413190616184565b80601f016020809104026020016040519081016040528092919081815260200182805461415d90616184565b80156141aa5780601f1061417f576101008083540402835291602001916141aa565b820191906000526020600020905b81548152906001019060200180831161418d57829003601f168201915b50505050508152602001600f820180546141c390616184565b80601f01602080910402602001604051908101604052809291908181526020018280546141ef90616184565b801561423c5780601f106142115761010080835404028352916020019161423c565b820191906000526020600020905b81548152906001019060200180831161421f57829003601f168201915b5050505050815260200160108201805461425590616184565b80601f016020809104026020016040519081016040528092919081815260200182805461428190616184565b80156142ce5780601f106142a3576101008083540402835291602001916142ce565b820191906000526020600020905b8154815290600101906020018083116142b157829003601f168201915b5050505050815260200160118201548152602001601282015481526020016013820154815260200160148201548152602001601582015481525050905061562e565b60405160200161431f90616684565b60405160208183030381529060405280519060200120846040516020016143469190616460565b604051602081830303815290604052805190602001201415614ca057600a5483106143a6576040517f08c379a000000000000000000000000000000000000000000000000000000000815260040161439d90616746565b60405180910390fd5b60046000848152602001908152602001600020604051806102c0016040529081600082015481526020016001820180546143df90616184565b80601f016020809104026020016040519081016040528092919081815260200182805461440b90616184565b80156144585780601f1061442d57610100808354040283529160200191614458565b820191906000526020600020905b81548152906001019060200180831161443b57829003601f168201915b5050505050815260200160028201805461447190616184565b80601f016020809104026020016040519081016040528092919081815260200182805461449d90616184565b80156144ea5780601f106144bf576101008083540402835291602001916144ea565b820191906000526020600020905b8154815290600101906020018083116144cd57829003601f168201915b5050505050815260200160038201805461450390616184565b80601f016020809104026020016040519081016040528092919081815260200182805461452f90616184565b801561457c5780601f106145515761010080835404028352916020019161457c565b820191906000526020600020905b81548152906001019060200180831161455f57829003601f168201915b5050505050815260200160048201805461459590616184565b80601f01602080910402602001604051908101604052809291908181526020018280546145c190616184565b801561460e5780601f106145e35761010080835404028352916020019161460e565b820191906000526020600020905b8154815290600101906020018083116145f157829003601f168201915b5050505050815260200160058201805461462790616184565b80601f016020809104026020016040519081016040528092919081815260200182805461465390616184565b80156146a05780601f10614675576101008083540402835291602001916146a0565b820191906000526020600020905b81548152906001019060200180831161468357829003601f168201915b505050505081526020016006820180546146b990616184565b80601f01602080910402602001604051908101604052809291908181526020018280546146e590616184565b80156147325780601f1061470757610100808354040283529160200191614732565b820191906000526020600020905b81548152906001019060200180831161471557829003601f168201915b5050505050815260200160078201805461474b90616184565b80601f016020809104026020016040519081016040528092919081815260200182805461477790616184565b80156147c45780601f10614799576101008083540402835291602001916147c4565b820191906000526020600020905b8154815290600101906020018083116147a757829003601f168201915b505050505081526020016008820180546147dd90616184565b80601f016020809104026020016040519081016040528092919081815260200182805461480990616184565b80156148565780601f1061482b57610100808354040283529160200191614856565b820191906000526020600020905b81548152906001019060200180831161483957829003601f168201915b5050505050815260200160098201805461486f90616184565b80601f016020809104026020016040519081016040528092919081815260200182805461489b90616184565b80156148e85780601f106148bd576101008083540402835291602001916148e8565b820191906000526020600020905b8154815290600101906020018083116148cb57829003601f168201915b50505050508152602001600a8201805461490190616184565b80601f016020809104026020016040519081016040528092919081815260200182805461492d90616184565b801561497a5780601f1061494f5761010080835404028352916020019161497a565b820191906000526020600020905b81548152906001019060200180831161495d57829003601f168201915b50505050508152602001600b8201805461499390616184565b80601f01602080910402602001604051908101604052809291908181526020018280546149bf90616184565b8015614a0c5780601f106149e157610100808354040283529160200191614a0c565b820191906000526020600020905b8154815290600101906020018083116149ef57829003601f168201915b50505050508152602001600c8201548152602001600d82018054614a2f90616184565b80601f0160208091040260200160405190810160405280929190818152602001828054614a5b90616184565b8015614aa85780601f10614a7d57610100808354040283529160200191614aa8565b820191906000526020600020905b815481529060010190602001808311614a8b57829003601f168201915b50505050508152602001600e82018054614ac190616184565b80601f0160208091040260200160405190810160405280929190818152602001828054614aed90616184565b8015614b3a5780601f10614b0f57610100808354040283529160200191614b3a565b820191906000526020600020905b815481529060010190602001808311614b1d57829003601f168201915b50505050508152602001600f82018054614b5390616184565b80601f0160208091040260200160405190810160405280929190818152602001828054614b7f90616184565b8015614bcc5780601f10614ba157610100808354040283529160200191614bcc565b820191906000526020600020905b815481529060010190602001808311614baf57829003601f168201915b50505050508152602001601082018054614be590616184565b80601f0160208091040260200160405190810160405280929190818152602001828054614c1190616184565b8015614c5e5780601f10614c3357610100808354040283529160200191614c5e565b820191906000526020600020905b815481529060010190602001808311614c4157829003601f168201915b5050505050815260200160118201548152602001601282015481526020016013820154815260200160148201548152602001601582015481525050905061562d565b604051602001614caf906166e5565b6040516020818303038152906040528051906020012084604051602001614cd69190616460565b60405160208183030381529060405280519060200120141561562c57600b548310614d36576040517f08c379a0000000000000000000000000000000000000000000000000000000008152600401614d2d90616746565b60405180910390fd5b60056000848152602001908152602001600020604051806102c001604052908160008201548152602001600182018054614d6f90616184565b80601f0160208091040260200160405190810160405280929190818152602001828054614d9b90616184565b8015614de85780601f10614dbd57610100808354040283529160200191614de8565b820191906000526020600020905b815481529060010190602001808311614dcb57829003601f168201915b50505050508152602001600282018054614e0190616184565b80601f0160208091040260200160405190810160405280929190818152602001828054614e2d90616184565b8015614e7a5780601f10614e4f57610100808354040283529160200191614e7a565b820191906000526020600020905b815481529060010190602001808311614e5d57829003601f168201915b50505050508152602001600382018054614e9390616184565b80601f0160208091040260200160405190810160405280929190818152602001828054614ebf90616184565b8015614f0c5780601f10614ee157610100808354040283529160200191614f0c565b820191906000526020600020905b815481529060010190602001808311614eef57829003601f168201915b50505050508152602001600482018054614f2590616184565b80601f0160208091040260200160405190810160405280929190818152602001828054614f5190616184565b8015614f9e5780601f10614f7357610100808354040283529160200191614f9e565b820191906000526020600020905b815481529060010190602001808311614f8157829003601f168201915b50505050508152602001600582018054614fb790616184565b80601f0160208091040260200160405190810160405280929190818152602001828054614fe390616184565b80156150305780601f1061500557610100808354040283529160200191615030565b820191906000526020600020905b81548152906001019060200180831161501357829003601f168201915b5050505050815260200160068201805461504990616184565b80601f016020809104026020016040519081016040528092919081815260200182805461507590616184565b80156150c25780601f10615097576101008083540402835291602001916150c2565b820191906000526020600020905b8154815290600101906020018083116150a557829003601f168201915b505050505081526020016007820180546150db90616184565b80601f016020809104026020016040519081016040528092919081815260200182805461510790616184565b80156151545780601f1061512957610100808354040283529160200191615154565b820191906000526020600020905b81548152906001019060200180831161513757829003601f168201915b5050505050815260200160088201805461516d90616184565b80601f016020809104026020016040519081016040528092919081815260200182805461519990616184565b80156151e65780601f106151bb576101008083540402835291602001916151e6565b820191906000526020600020905b8154815290600101906020018083116151c957829003601f168201915b505050505081526020016009820180546151ff90616184565b80601f016020809104026020016040519081016040528092919081815260200182805461522b90616184565b80156152785780601f1061524d57610100808354040283529160200191615278565b820191906000526020600020905b81548152906001019060200180831161525b57829003601f168201915b50505050508152602001600a8201805461529190616184565b80601f01602080910402602001604051908101604052809291908181526020018280546152bd90616184565b801561530a5780601f106152df5761010080835404028352916020019161530a565b820191906000526020600020905b8154815290600101906020018083116152ed57829003601f168201915b50505050508152602001600b8201805461532390616184565b80601f016020809104026020016040519081016040528092919081815260200182805461534f90616184565b801561539c5780601f106153715761010080835404028352916020019161539c565b820191906000526020600020905b81548152906001019060200180831161537f57829003601f168201915b50505050508152602001600c8201548152602001600d820180546153bf90616184565b80601f01602080910402602001604051908101604052809291908181526020018280546153eb90616184565b80156154385780601f1061540d57610100808354040283529160200191615438565b820191906000526020600020905b81548152906001019060200180831161541b57829003601f168201915b50505050508152602001600e8201805461545190616184565b80601f016020809104026020016040519081016040528092919081815260200182805461547d90616184565b80156154ca5780601f1061549f576101008083540402835291602001916154ca565b820191906000526020600020905b8154815290600101906020018083116154ad57829003601f168201915b50505050508152602001600f820180546154e390616184565b80601f016020809104026020016040519081016040528092919081815260200182805461550f90616184565b801561555c5780601f106155315761010080835404028352916020019161555c565b820191906000526020600020905b81548152906001019060200180831161553f57829003601f168201915b5050505050815260200160108201805461557590616184565b80601f01602080910402602001604051908101604052809291908181526020018280546155a190616184565b80156155ee5780601f106155c3576101008083540402835291602001916155ee565b820191906000526020600020905b8154815290600101906020018083116155d157829003601f168201915b505050505081526020016011820154815260200160128201548152602001601382015481526020016014820154815260200160158201548152505090505b5b5b5b5b5b82816000015114615677576040517f08c379a000000000000000000000000000000000000000000000000000000000815260040161566e906167b2565b60405180910390fd5b806000015191505092915050565b6000601360003373ffffffffffffffffffffffffffffffffffffffff1673ffffffffffffffffffffffffffffffffffffffff16815260200190815260200160002054905090565b60065481565b6000600654905090565b600b5481565b604051806102c00160405280600081526020016060815260200160608152602001606081526020016060815260200160608152602001606081526020016060815260200160608152602001606081526020016060815260200160608152602001600081526020016060815260200160608152602001606081526020016060815260200160008152602001600081526020016000815260200160008152602001600081525090565b82805461579590616184565b90600052602060002090601f0160209004810192826157b757600085556157fe565b82601f106157d057805160ff19168380011785556157fe565b828001600101855582156157fe579182015b828111156157fd5782518255916020019190600101906157e2565b5b50905061580b919061580f565b5090565b5b80821115615828576000816000905550600101615810565b5090565b6000819050919050565b61583f8161582c565b82525050565b600060208201905061585a6000830184615836565b92915050565b6000604051905090565b600080fd5b600080fd5b61587d8161582c565b811461588857600080fd5b50565b60008135905061589a81615874565b92915050565b6000602082840312156158b6576158b561586a565b5b60006158c48482850161588b565b91505092915050565b6158d68161582c565b82525050565b600081519050919050565b600082825260208201905092915050565b60005b838110156159165780820151818401526020810190506158fb565b83811115615925576000848401525b50505050565b6000601f19601f8301169050919050565b6000615947826158dc565b61595181856158e7565b93506159618185602086016158f8565b61596a8161592b565b840191505092915050565b60006102c08301600083015161598e60008601826158cd565b50602083015184820360208601526159a6828261593c565b915050604083015184820360408601526159c0828261593c565b915050606083015184820360608601526159da828261593c565b915050608083015184820360808601526159f4828261593c565b91505060a083015184820360a0860152615a0e828261593c565b91505060c083015184820360c0860152615a28828261593c565b91505060e083015184820360e0860152615a42828261593c565b915050610100830151848203610100860152615a5e828261593c565b915050610120830151848203610120860152615a7a828261593c565b915050610140830151848203610140860152615a96828261593c565b915050610160830151848203610160860152615ab2828261593c565b915050610180830151615ac96101808601826158cd565b506101a08301518482036101a0860152615ae3828261593c565b9150506101c08301518482036101c0860152615aff828261593c565b9150506101e08301518482036101e0860152615b1b828261593c565b915050610200830151848203610200860152615b37828261593c565b915050610220830151615b4e6102208601826158cd565b50610240830151615b636102408601826158cd565b50610260830151615b786102608601826158cd565b50610280830151615b8d6102808601826158cd565b506102a0830151615ba26102a08601826158cd565b508091505092915050565b60006020820190508181036000830152615bc78184615975565b905092915050565b600080fd5b7f4e487b7100000000000000000000000000000000000000000000000000000000600052604160045260246000fd5b615c0c8261592b565b810181811067ffffffffffffffff82111715615c2b57615c2a615bd4565b5b80604052505050565b6000615c3e615860565b9050615c4a8282615c03565b919050565b600080fd5b600080fd5b600080fd5b600067ffffffffffffffff821115615c7957615c78615bd4565b5b615c828261592b565b9050602081019050919050565b82818337600083830152505050565b6000615cb1615cac84615c5e565b615c34565b905082815260208101848484011115615ccd57615ccc615c59565b5b615cd8848285615c8f565b509392505050565b600082601f830112615cf557615cf4615c54565b5b8135615d05848260208601615c9e565b91505092915050565b60006102c08284031215615d2557615d24615bcf565b5b615d306102c0615c34565b90506000615d408482850161588b565b600083015250602082013567ffffffffffffffff811115615d6457615d63615c4f565b5b615d7084828501615ce0565b602083015250604082013567ffffffffffffffff811115615d9457615d93615c4f565b5b615da084828501615ce0565b604083015250606082013567ffffffffffffffff811115615dc457615dc3615c4f565b5b615dd084828501615ce0565b606083015250608082013567ffffffffffffffff811115615df457615df3615c4f565b5b615e0084828501615ce0565b60808301525060a082013567ffffffffffffffff811115615e2457615e23615c4f565b5b615e3084828501615ce0565b60a08301525060c082013567ffffffffffffffff811115615e5457615e53615c4f565b5b615e6084828501615ce0565b60c08301525060e082013567ffffffffffffffff811115615e8457615e83615c4f565b5b615e9084828501615ce0565b60e08301525061010082013567ffffffffffffffff811115615eb557615eb4615c4f565b5b615ec184828501615ce0565b6101008301525061012082013567ffffffffffffffff811115615ee757615ee6615c4f565b5b615ef384828501615ce0565b6101208301525061014082013567ffffffffffffffff811115615f1957615f18615c4f565b5b615f2584828501615ce0565b6101408301525061016082013567ffffffffffffffff811115615f4b57615f4a615c4f565b5b615f5784828501615ce0565b61016083015250610180615f6d8482850161588b565b610180830152506101a082013567ffffffffffffffff811115615f9357615f92615c4f565b5b615f9f84828501615ce0565b6101a0830152506101c082013567ffffffffffffffff811115615fc557615fc4615c4f565b5b615fd184828501615ce0565b6101c0830152506101e082013567ffffffffffffffff811115615ff757615ff6615c4f565b5b61600384828501615ce0565b6101e08301525061020082013567ffffffffffffffff81111561602957616028615c4f565b5b61603584828501615ce0565b6102008301525061022061604b8482850161588b565b610220830152506102406160618482850161588b565b610240830152506102606160778482850161588b565b6102608301525061028061608d8482850161588b565b610280830152506102a06160a38482850161588b565b6102a08301525092915050565b6000602082840312156160c6576160c561586a565b5b600082013567ffffffffffffffff8111156160e4576160e361586f565b5b6160f084828501615d0e565b91505092915050565b600080604083850312156161105761610f61586a565b5b600083013567ffffffffffffffff81111561612e5761612d61586f565b5b61613a85828601615ce0565b925050602061614b8582860161588b565b9150509250929050565b7f4e487b7100000000000000000000000000000000000000000000000000000000600052602260045260246000fd5b6000600282049050600182168061619c57607f821691505b602082108114156161b0576161af616155565b5b50919050565b600082825260208201905092915050565b7f50726963652062656c6f77207374617274696e67207072696365000000000000600082015250565b60006161fd601a836161b6565b9150616208826161c7565b602082019050919050565b6000602082019050818103600083015261622c816161f0565b9050919050565b7f50726963652061626f7665206869676865737420707269636500000000000000600082015250565b60006162696019836161b6565b915061627482616233565b602082019050919050565b600060208201905081810360008301526162988161625c565b9050919050565b7f496e73756666696369656e742066756e647320696e2062616e6b206163636f7560008201527f6e74000000000000000000000000000000000000000000000000000000000000602082015250565b60006162fb6022836161b6565b91506163068261629f565b604082019050919050565b6000602082019050818103600083015261632a816162ee565b9050919050565b7f426964646572206861732073756666696369656e742055534420696e206e6f7360008201527f74726f206163636f756e74730000000000000000000000000000000000000000602082015250565b600061638d602c836161b6565b915061639882616331565b604082019050919050565b600060208201905081810360008301526163bc81616380565b9050919050565b600081905092915050565b7f5052494d41525900000000000000000000000000000000000000000000000000600082015250565b60006164046007836163c3565b915061640f826163ce565b600782019050919050565b6000616425826163f7565b9150819050919050565b600061643a826158dc565b61644481856163c3565b93506164548185602086016158f8565b80840191505092915050565b600061646c828461642f565b915081905092915050565b7f4e487b7100000000000000000000000000000000000000000000000000000000600052601160045260246000fd5b60006164b18261582c565b91507fffffffffffffffffffffffffffffffffffffffffffffffffffffffffffffffff8214156164e4576164e3616477565b5b600182019050919050565b7f5345434f4e44415259202d205452414445522f4147454e54532f434f4d4d4f4460008201527f4954592042524f4b455200000000000000000000000000000000000000000000602082015250565b600061654b602a836163c3565b9150616556826164ef565b602a82019050919050565b600061656c8261653e565b9150819050919050565b7f5345434f4e44415259202d205345525649434553000000000000000000000000600082015250565b60006165ac6014836163c3565b91506165b782616576565b601482019050919050565b60006165cd8261659f565b9150819050919050565b7f5345434f4e44415259202d2046494e495348454420474f4f4453000000000000600082015250565b600061660d601a836163c3565b9150616618826165d7565b601a82019050919050565b600061662e82616600565b9150819050919050565b7f5345434f4e44415259202d20434f4e53554d41424c4553000000000000000000600082015250565b600061666e6017836163c3565b915061667982616638565b601782019050919050565b600061668f82616661565b9150819050919050565b7f494e444956494455414c00000000000000000000000000000000000000000000600082015250565b60006166cf600a836163c3565b91506166da82616699565b600a82019050919050565b60006166f0826166c2565b9150819050919050565b7f42696420646f6573206e6f742065786973740000000000000000000000000000600082015250565b60006167306012836161b6565b915061673b826166fa565b602082019050919050565b6000602082019050818103600083015261675f81616723565b9050919050565b7f4269642077697468206964206e6f7420666f756e640000000000000000000000600082015250565b600061679c6015836161b6565b91506167a782616766565b602082019050919050565b600060208201905081810360008301526167cb8161678f565b905091905056fea264697066735822122071fc2a883dee79eaf5e3dece96257c49e35db74ce06043892e54446e057d21e464736f6c634300080c0033",
  "immutableReferences": {},
  "source": "// SPDX-License-Identifier: MIT\npragma solidity 0.8.12;\n\n// import \"./ERC20.sol\";\n\ncontract FXAuctions {\n\n\n\n  mapping (uint => FXBidForm) private primaryBids;\n  mapping (uint => FXBidForm) private secondaryTraders;\n  mapping (uint => FXBidForm) private secondaryServices;\n  mapping (uint => FXBidForm) private secondaryFinished;\n  mapping (uint => FXBidForm) private secondaryConsumables;\n  mapping (uint => FXBidForm) private individuals;\n  // FXBidForm[] private primaryBids;\n  // FXBidForm[] private secondaryTraders;\n  // FXBidForm[] private secondaryServices;\n  // FXBidForm[] private secondaryFinished;\n  // FXBidForm[] private secondaryConsumables;\n  // FXBidForm[] private individuals;\n  uint public primaryCount = 0;\n  uint public secondaryTradersCount = 0;\n  uint public secondaryServicesCount = 0;\n  uint public secondaryFinishedCount = 0;\n  uint public secondaryConsumablesCount = 0;\n  uint public individualsCount = 0;\n\n\n  uint public numberOfAuctioneers = 0;\n  mapping (uint => FXBidForm) private bids;\n  // FXBidForm[] private bids;\n  uint totalAuctionAmountUSD;\n  uint bidSubmitionCloseTime;\n  uint highestBidPrice;\n  uint lowestBidPrice;\n  address owner;\n\n    struct FXBidForm {\n        uint _id;\n        string _applicantName;\n        string _dateOfIncorporation;\n        string _tradingCommencementDate;\n        string _identificationNumber;\n        string _categoryOfBidder;\n        string _physicalAddress;\n        string _emailAddress;\n        string _contactNumber;\n        string _applicantBank;\n        string _auctionRef;\n        string _priorExhangeControlNumber;\n        uint _date;\n\n\n        string _economicSector;\n        string _purposeOfFunds;\n        string _descriptionOfGoods;\n        string _ultimateBeneficiary;\n        uint _bidAmountUSD;\n        uint _bidExchangeRate;\n        uint _zwlEquivalent;\n        uint _currentBalanceZWL;\n        uint _currentNostroBalanceUSD;\n\n    }\n\n    mapping(address=>uint) bidBalance;\n    mapping(address=>FXBidForm) bidInfor;\n\n    modifier onlyWhileOpen(){\n        require(bidSubmitionCloseTime <= block.timestamp);\n        _;\n    } \n\n    constructor (uint _totalAuctionAmountUSD, uint _bidSubmitionCloseTime, uint _highestBidPrice, uint _lowestBidPrice) {\n        totalAuctionAmountUSD = _totalAuctionAmountUSD;\n        bidSubmitionCloseTime = _bidSubmitionCloseTime;\n        highestBidPrice = _highestBidPrice;\n        lowestBidPrice = _lowestBidPrice;\n        bidBalance[msg.sender] = _totalAuctionAmountUSD;\n\n    }\n\n    function getAvailableBidBalance() external view  returns (uint) {\n      return bidBalance[msg.sender];\n    }\n\n    function getNumberOfBidders() external view returns (uint){\n      return primaryCount;\n    }\n\n    function getBid(string memory category, uint id) external view returns(uint){\n      FXBidForm memory fxBid;\n      if(keccak256(abi.encodePacked((category))) == keccak256(abi.encodePacked((\"PRIMARY\")))){\n        require(id < primaryCount, \"Bid does not exist\");\n        fxBid = primaryBids[id];\n      }else if(keccak256(abi.encodePacked((category))) == keccak256(abi.encodePacked((\"SECONDARY - TRADER/AGENTS/COMMODITY BROKER\")))){\n        require(id < secondaryTradersCount, \"Bid does not exist\");\n        fxBid = secondaryTraders[id];\n      }else if(keccak256(abi.encodePacked((category))) == keccak256(abi.encodePacked((\"SECONDARY - SERVICES\")))){\n        require(id < secondaryServicesCount, \"Bid does not exist\");\n        fxBid = secondaryServices[id];\n      }else if(keccak256(abi.encodePacked((category))) == keccak256(abi.encodePacked((\"SECONDARY - FINISHED GOODS\")))){\n        require(id < secondaryFinishedCount, \"Bid does not exist\");\n        fxBid = secondaryFinished[id];\n      }else if(keccak256(abi.encodePacked((category))) == keccak256(abi.encodePacked((\"SECONDARY - CONSUMABLES\")))){\n        require(id < secondaryConsumablesCount, \"Bid does not exist\");\n        fxBid = secondaryConsumables[id];\n      }else if(keccak256(abi.encodePacked((category))) == keccak256(abi.encodePacked((\"INDIVIDUAL\")))){\n        require(id < individualsCount, \"Bid does not exist\");\n        fxBid = individuals[id];\n      } \n      require(fxBid._id == id, \"Bid with id not found\");\n      return fxBid._id;\n    } \n\n    function getPrimaryBids(uint id) external view returns(FXBidForm memory) {\n      return primaryBids[id];\n    }\n\n    function submitBid(FXBidForm memory _fixBiForm) external onlyWhileOpen {\n      require(_fixBiForm._bidExchangeRate >= lowestBidPrice, \"Price below starting price\");    \n      require(_fixBiForm._bidExchangeRate <= highestBidPrice, \"Price above highest price\");\n      require(_fixBiForm._zwlEquivalent <= _fixBiForm._currentBalanceZWL, \"Insufficient funds in bank account\");     \n      require(_fixBiForm._bidAmountUSD >= _fixBiForm._currentNostroBalanceUSD, \"Bidder has sufficient USD in nostro accounts\");  \n      require(_fixBiForm._bidAmountUSD >= 2500\n              && _fixBiForm._bidAmountUSD <= 500000\n              && !((20000 < _fixBiForm._bidAmountUSD) && (_fixBiForm._bidAmountUSD < 50000)), \"Bidder has sufficient USD in nostro accounts\");  \n\n\n      if(keccak256(abi.encodePacked((_fixBiForm._categoryOfBidder))) == keccak256(abi.encodePacked((\"PRIMARY\")))){\n        _fixBiForm._id = primaryCount;\n        primaryBids[primaryCount++] = _fixBiForm;\n        // primaryBids.push(_fixBiForm);\n        // primaryCount++;\n      }\n      else if (keccak256(abi.encodePacked((_fixBiForm._categoryOfBidder))) == keccak256(abi.encodePacked((\"SECONDARY - TRADER/AGENTS/COMMODITY BROKER\")))){\n        _fixBiForm._id = secondaryTradersCount;\n        secondaryTraders[secondaryTradersCount++] = _fixBiForm;\n        // secondaryTraders.push(_fixBiForm);\n        // secondaryTradersCount++;\n      }\n      else if (keccak256(abi.encodePacked((_fixBiForm._categoryOfBidder))) == keccak256(abi.encodePacked((\"SECONDARY - SERVICES\")))){\n        _fixBiForm._id = secondaryServicesCount;\n        secondaryServices[secondaryServicesCount++] = _fixBiForm;\n        // secondaryServices.push(_fixBiForm);\n        // secondaryServicesCount++;\n      }\n      else if (keccak256(abi.encodePacked((_fixBiForm._categoryOfBidder))) == keccak256(abi.encodePacked((\"SECONDARY - FINISHED GOODS\")))){\n        _fixBiForm._id = secondaryFinishedCount;\n        secondaryFinished[secondaryFinishedCount++] = _fixBiForm;\n        // secondaryFinished.push(_fixBiForm);\n        // secondaryFinishedCount++;\n      }\n      else if (keccak256(abi.encodePacked((_fixBiForm._categoryOfBidder))) == keccak256(abi.encodePacked((\"SECONDARY - CONSUMABLES\")))){\n        _fixBiForm._id = secondaryConsumablesCount;\n        secondaryConsumables[secondaryConsumablesCount++] = _fixBiForm;\n        // secondaryConsumables.push(_fixBiForm);\n        // secondaryConsumablesCount++;\n      }\n      else if (keccak256(abi.encodePacked((_fixBiForm._categoryOfBidder))) == keccak256(abi.encodePacked((\"INDIVIDUAL\")))){\n        _fixBiForm._id = individualsCount;\n        individuals[individualsCount++] = _fixBiForm;\n        // individuals.push(_fixBiForm);\n        // individualsCount++;\n      }\n    }\n\n\n    function incrementCount() internal{\n        numberOfAuctioneers++;\n   }\n\n   function selectWinningBid() internal view {\n        \n    \n   }\n\n\n\n\n}",
  "sourcePath": "/Users/tafarambano/Desktop/test-truffle/contracts/FXAuctions.sol",
  "compiler": {
    "name": "solc",
    "version": "0.8.12+commit.f00d7308.Emscripten.clang"
  },
  "schemaVersion": "3.4.5",
  "updatedAt": "2022-03-07T15:37:17.462Z",
  "devdoc": {
    "kind": "dev",
    "methods": {},
    "version": 1
  },
  "userdoc": {
    "kind": "user",
    "methods": {},
    "version": 1
  }
}