{
  "contractName": "FXAuction",
  "abi": [
    {
      "inputs": [],
      "stateMutability": "nonpayable",
      "type": "constructor"
    },
    {
      "anonymous": false,
      "inputs": [
        {
          "indexed": true,
          "internalType": "uint256",
          "name": "auctionId",
          "type": "uint256"
        },
        {
          "indexed": false,
          "internalType": "uint256",
          "name": "rbzUSDBalance",
          "type": "uint256"
        },
        {
          "indexed": false,
          "internalType": "uint256",
          "name": "rbzZWLBalance",
          "type": "uint256"
        },
        {
          "indexed": false,
          "internalType": "string",
          "name": "auctionTitle",
          "type": "string"
        },
        {
          "indexed": false,
          "internalType": "string",
          "name": "auctionType",
          "type": "string"
        },
        {
          "indexed": false,
          "internalType": "uint256",
          "name": "startTime",
          "type": "uint256"
        },
        {
          "indexed": false,
          "internalType": "uint256",
          "name": "endTime",
          "type": "uint256"
        },
        {
          "indexed": false,
          "internalType": "uint256",
          "name": "lowestBidPrice",
          "type": "uint256"
        },
        {
          "indexed": false,
          "internalType": "uint256",
          "name": "highestBidPrice",
          "type": "uint256"
        }
      ],
      "name": "AuctionCreated",
      "type": "event"
    },
    {
      "anonymous": false,
      "inputs": [
        {
          "components": [
            {
              "internalType": "uint256",
              "name": "fxBidFormListingId",
              "type": "uint256"
            },
            {
              "internalType": "uint256",
              "name": "auctionId",
              "type": "uint256"
            },
            {
              "internalType": "string",
              "name": "applicantName",
              "type": "string"
            },
            {
              "internalType": "string",
              "name": "dateOfIncorporation",
              "type": "string"
            },
            {
              "internalType": "string",
              "name": "tradingCommencementDate",
              "type": "string"
            },
            {
              "internalType": "string",
              "name": "identificationNumber",
              "type": "string"
            },
            {
              "internalType": "string",
              "name": "categoryOfBidder",
              "type": "string"
            },
            {
              "internalType": "string",
              "name": "physicalAddress",
              "type": "string"
            },
            {
              "internalType": "string",
              "name": "emailAddress",
              "type": "string"
            },
            {
              "internalType": "string",
              "name": "contactNumber",
              "type": "string"
            },
            {
              "internalType": "string",
              "name": "applicantBank",
              "type": "string"
            },
            {
              "internalType": "string",
              "name": "auctionRef",
              "type": "string"
            },
            {
              "internalType": "string",
              "name": "priorExhangeControlNumber",
              "type": "string"
            },
            {
              "internalType": "uint256",
              "name": "date",
              "type": "uint256"
            },
            {
              "internalType": "string",
              "name": "economicSector",
              "type": "string"
            },
            {
              "internalType": "string",
              "name": "purposeOfFunds",
              "type": "string"
            },
            {
              "internalType": "string",
              "name": "descriptionOfGoods",
              "type": "string"
            },
            {
              "internalType": "string",
              "name": "ultimateBeneficiary",
              "type": "string"
            },
            {
              "internalType": "uint256",
              "name": "bidAmountUSD",
              "type": "uint256"
            },
            {
              "internalType": "uint256",
              "name": "bidExchangeRate",
              "type": "uint256"
            },
            {
              "internalType": "uint256",
              "name": "zwlEquivalent",
              "type": "uint256"
            },
            {
              "internalType": "uint256",
              "name": "currentBalanceZWL",
              "type": "uint256"
            },
            {
              "internalType": "uint256",
              "name": "currentNostroBalanceUSD",
              "type": "uint256"
            },
            {
              "internalType": "uint256",
              "name": "allocatedAmountBlance",
              "type": "uint256"
            },
            {
              "internalType": "bool",
              "name": "allocationStatus",
              "type": "bool"
            }
          ],
          "indexed": false,
          "internalType": "struct FXAuction.FxBidForm",
          "name": "bid",
          "type": "tuple"
        }
      ],
      "name": "BidAllocatedFunds",
      "type": "event"
    },
    {
      "anonymous": false,
      "inputs": [
        {
          "components": [
            {
              "internalType": "uint256",
              "name": "fxBidFormListingId",
              "type": "uint256"
            },
            {
              "internalType": "uint256",
              "name": "auctionId",
              "type": "uint256"
            },
            {
              "internalType": "string",
              "name": "applicantName",
              "type": "string"
            },
            {
              "internalType": "string",
              "name": "dateOfIncorporation",
              "type": "string"
            },
            {
              "internalType": "string",
              "name": "tradingCommencementDate",
              "type": "string"
            },
            {
              "internalType": "string",
              "name": "identificationNumber",
              "type": "string"
            },
            {
              "internalType": "string",
              "name": "categoryOfBidder",
              "type": "string"
            },
            {
              "internalType": "string",
              "name": "physicalAddress",
              "type": "string"
            },
            {
              "internalType": "string",
              "name": "emailAddress",
              "type": "string"
            },
            {
              "internalType": "string",
              "name": "contactNumber",
              "type": "string"
            },
            {
              "internalType": "string",
              "name": "applicantBank",
              "type": "string"
            },
            {
              "internalType": "string",
              "name": "auctionRef",
              "type": "string"
            },
            {
              "internalType": "string",
              "name": "priorExhangeControlNumber",
              "type": "string"
            },
            {
              "internalType": "uint256",
              "name": "date",
              "type": "uint256"
            },
            {
              "internalType": "string",
              "name": "economicSector",
              "type": "string"
            },
            {
              "internalType": "string",
              "name": "purposeOfFunds",
              "type": "string"
            },
            {
              "internalType": "string",
              "name": "descriptionOfGoods",
              "type": "string"
            },
            {
              "internalType": "string",
              "name": "ultimateBeneficiary",
              "type": "string"
            },
            {
              "internalType": "uint256",
              "name": "bidAmountUSD",
              "type": "uint256"
            },
            {
              "internalType": "uint256",
              "name": "bidExchangeRate",
              "type": "uint256"
            },
            {
              "internalType": "uint256",
              "name": "zwlEquivalent",
              "type": "uint256"
            },
            {
              "internalType": "uint256",
              "name": "currentBalanceZWL",
              "type": "uint256"
            },
            {
              "internalType": "uint256",
              "name": "currentNostroBalanceUSD",
              "type": "uint256"
            },
            {
              "internalType": "uint256",
              "name": "allocatedAmountBlance",
              "type": "uint256"
            },
            {
              "internalType": "bool",
              "name": "allocationStatus",
              "type": "bool"
            }
          ],
          "indexed": false,
          "internalType": "struct FXAuction.FxBidForm",
          "name": "bid",
          "type": "tuple"
        }
      ],
      "name": "BidSubmitted",
      "type": "event"
    },
    {
      "inputs": [
        {
          "components": [
            {
              "internalType": "uint256",
              "name": "rbzUSDBalance",
              "type": "uint256"
            },
            {
              "internalType": "string",
              "name": "auctionTitle",
              "type": "string"
            },
            {
              "internalType": "string",
              "name": "auctionType",
              "type": "string"
            },
            {
              "internalType": "uint256",
              "name": "startTime",
              "type": "uint256"
            },
            {
              "internalType": "uint256",
              "name": "endTime",
              "type": "uint256"
            },
            {
              "internalType": "uint256",
              "name": "lowestBidPrice",
              "type": "uint256"
            },
            {
              "internalType": "uint256",
              "name": "highestBidPrice",
              "type": "uint256"
            }
          ],
          "internalType": "struct FXAuction.SubmitAuction",
          "name": "newAuction",
          "type": "tuple"
        }
      ],
      "name": "submitAuction",
      "outputs": [],
      "stateMutability": "nonpayable",
      "type": "function"
    },
    {
      "inputs": [
        {
          "components": [
            {
              "internalType": "uint256",
              "name": "fxBidFormListingId",
              "type": "uint256"
            },
            {
              "internalType": "uint256",
              "name": "auctionId",
              "type": "uint256"
            },
            {
              "internalType": "string",
              "name": "applicantName",
              "type": "string"
            },
            {
              "internalType": "string",
              "name": "dateOfIncorporation",
              "type": "string"
            },
            {
              "internalType": "string",
              "name": "tradingCommencementDate",
              "type": "string"
            },
            {
              "internalType": "string",
              "name": "identificationNumber",
              "type": "string"
            },
            {
              "internalType": "string",
              "name": "categoryOfBidder",
              "type": "string"
            },
            {
              "internalType": "string",
              "name": "physicalAddress",
              "type": "string"
            },
            {
              "internalType": "string",
              "name": "emailAddress",
              "type": "string"
            },
            {
              "internalType": "string",
              "name": "contactNumber",
              "type": "string"
            },
            {
              "internalType": "string",
              "name": "applicantBank",
              "type": "string"
            },
            {
              "internalType": "string",
              "name": "auctionRef",
              "type": "string"
            },
            {
              "internalType": "string",
              "name": "priorExhangeControlNumber",
              "type": "string"
            },
            {
              "internalType": "uint256",
              "name": "date",
              "type": "uint256"
            },
            {
              "internalType": "string",
              "name": "economicSector",
              "type": "string"
            },
            {
              "internalType": "string",
              "name": "purposeOfFunds",
              "type": "string"
            },
            {
              "internalType": "string",
              "name": "descriptionOfGoods",
              "type": "string"
            },
            {
              "internalType": "string",
              "name": "ultimateBeneficiary",
              "type": "string"
            },
            {
              "internalType": "uint256",
              "name": "bidAmountUSD",
              "type": "uint256"
            },
            {
              "internalType": "uint256",
              "name": "bidExchangeRate",
              "type": "uint256"
            },
            {
              "internalType": "uint256",
              "name": "zwlEquivalent",
              "type": "uint256"
            },
            {
              "internalType": "uint256",
              "name": "currentBalanceZWL",
              "type": "uint256"
            },
            {
              "internalType": "uint256",
              "name": "currentNostroBalanceUSD",
              "type": "uint256"
            },
            {
              "internalType": "uint256",
              "name": "allocatedAmountBlance",
              "type": "uint256"
            },
            {
              "internalType": "bool",
              "name": "allocationStatus",
              "type": "bool"
            }
          ],
          "internalType": "struct FXAuction.FxBidForm",
          "name": "fxBidForm",
          "type": "tuple"
        }
      ],
      "name": "submitBid",
      "outputs": [],
      "stateMutability": "nonpayable",
      "type": "function"
    },
    {
      "inputs": [],
      "name": "getAllAuctionsCount",
      "outputs": [
        {
          "internalType": "uint256",
          "name": "",
          "type": "uint256"
        }
      ],
      "stateMutability": "view",
      "type": "function",
      "constant": true
    },
    {
      "inputs": [
        {
          "internalType": "uint256",
          "name": "auctionId",
          "type": "uint256"
        }
      ],
      "name": "getAllPrimaryBids",
      "outputs": [
        {
          "components": [
            {
              "internalType": "uint256",
              "name": "fxBidFormListingId",
              "type": "uint256"
            },
            {
              "internalType": "uint256",
              "name": "auctionId",
              "type": "uint256"
            },
            {
              "internalType": "string",
              "name": "applicantName",
              "type": "string"
            },
            {
              "internalType": "string",
              "name": "dateOfIncorporation",
              "type": "string"
            },
            {
              "internalType": "string",
              "name": "tradingCommencementDate",
              "type": "string"
            },
            {
              "internalType": "string",
              "name": "identificationNumber",
              "type": "string"
            },
            {
              "internalType": "string",
              "name": "categoryOfBidder",
              "type": "string"
            },
            {
              "internalType": "string",
              "name": "physicalAddress",
              "type": "string"
            },
            {
              "internalType": "string",
              "name": "emailAddress",
              "type": "string"
            },
            {
              "internalType": "string",
              "name": "contactNumber",
              "type": "string"
            },
            {
              "internalType": "string",
              "name": "applicantBank",
              "type": "string"
            },
            {
              "internalType": "string",
              "name": "auctionRef",
              "type": "string"
            },
            {
              "internalType": "string",
              "name": "priorExhangeControlNumber",
              "type": "string"
            },
            {
              "internalType": "uint256",
              "name": "date",
              "type": "uint256"
            },
            {
              "internalType": "string",
              "name": "economicSector",
              "type": "string"
            },
            {
              "internalType": "string",
              "name": "purposeOfFunds",
              "type": "string"
            },
            {
              "internalType": "string",
              "name": "descriptionOfGoods",
              "type": "string"
            },
            {
              "internalType": "string",
              "name": "ultimateBeneficiary",
              "type": "string"
            },
            {
              "internalType": "uint256",
              "name": "bidAmountUSD",
              "type": "uint256"
            },
            {
              "internalType": "uint256",
              "name": "bidExchangeRate",
              "type": "uint256"
            },
            {
              "internalType": "uint256",
              "name": "zwlEquivalent",
              "type": "uint256"
            },
            {
              "internalType": "uint256",
              "name": "currentBalanceZWL",
              "type": "uint256"
            },
            {
              "internalType": "uint256",
              "name": "currentNostroBalanceUSD",
              "type": "uint256"
            },
            {
              "internalType": "uint256",
              "name": "allocatedAmountBlance",
              "type": "uint256"
            },
            {
              "internalType": "bool",
              "name": "allocationStatus",
              "type": "bool"
            }
          ],
          "internalType": "struct FXAuction.FxBidForm[]",
          "name": "",
          "type": "tuple[]"
        }
      ],
      "stateMutability": "view",
      "type": "function",
      "constant": true
    },
    {
      "inputs": [],
      "name": "getAllAuctions",
      "outputs": [
        {
          "components": [
            {
              "internalType": "uint256",
              "name": "auctionId",
              "type": "uint256"
            },
            {
              "internalType": "uint256",
              "name": "_bidsAllocatedFunds",
              "type": "uint256"
            },
            {
              "internalType": "uint256",
              "name": "rbzUSDBalance",
              "type": "uint256"
            },
            {
              "internalType": "uint256",
              "name": "rbzZWLBalance",
              "type": "uint256"
            },
            {
              "internalType": "uint256",
              "name": "_bidListingId",
              "type": "uint256"
            },
            {
              "internalType": "string",
              "name": "auctionTitle",
              "type": "string"
            },
            {
              "internalType": "string",
              "name": "auctionType",
              "type": "string"
            },
            {
              "internalType": "uint256",
              "name": "startTime",
              "type": "uint256"
            },
            {
              "internalType": "uint256",
              "name": "endTime",
              "type": "uint256"
            },
            {
              "internalType": "uint256",
              "name": "lowestBidPrice",
              "type": "uint256"
            },
            {
              "internalType": "uint256",
              "name": "highestBidPrice",
              "type": "uint256"
            }
          ],
          "internalType": "struct FXAuction.GetAuction[]",
          "name": "",
          "type": "tuple[]"
        }
      ],
      "stateMutability": "view",
      "type": "function",
      "constant": true
    },
    {
      "inputs": [
        {
          "components": [
            {
              "internalType": "uint256",
              "name": "fxBidFormListingId",
              "type": "uint256"
            },
            {
              "internalType": "uint256",
              "name": "auctionId",
              "type": "uint256"
            },
            {
              "internalType": "string",
              "name": "applicantName",
              "type": "string"
            },
            {
              "internalType": "string",
              "name": "dateOfIncorporation",
              "type": "string"
            },
            {
              "internalType": "string",
              "name": "tradingCommencementDate",
              "type": "string"
            },
            {
              "internalType": "string",
              "name": "identificationNumber",
              "type": "string"
            },
            {
              "internalType": "string",
              "name": "categoryOfBidder",
              "type": "string"
            },
            {
              "internalType": "string",
              "name": "physicalAddress",
              "type": "string"
            },
            {
              "internalType": "string",
              "name": "emailAddress",
              "type": "string"
            },
            {
              "internalType": "string",
              "name": "contactNumber",
              "type": "string"
            },
            {
              "internalType": "string",
              "name": "applicantBank",
              "type": "string"
            },
            {
              "internalType": "string",
              "name": "auctionRef",
              "type": "string"
            },
            {
              "internalType": "string",
              "name": "priorExhangeControlNumber",
              "type": "string"
            },
            {
              "internalType": "uint256",
              "name": "date",
              "type": "uint256"
            },
            {
              "internalType": "string",
              "name": "economicSector",
              "type": "string"
            },
            {
              "internalType": "string",
              "name": "purposeOfFunds",
              "type": "string"
            },
            {
              "internalType": "string",
              "name": "descriptionOfGoods",
              "type": "string"
            },
            {
              "internalType": "string",
              "name": "ultimateBeneficiary",
              "type": "string"
            },
            {
              "internalType": "uint256",
              "name": "bidAmountUSD",
              "type": "uint256"
            },
            {
              "internalType": "uint256",
              "name": "bidExchangeRate",
              "type": "uint256"
            },
            {
              "internalType": "uint256",
              "name": "zwlEquivalent",
              "type": "uint256"
            },
            {
              "internalType": "uint256",
              "name": "currentBalanceZWL",
              "type": "uint256"
            },
            {
              "internalType": "uint256",
              "name": "currentNostroBalanceUSD",
              "type": "uint256"
            },
            {
              "internalType": "uint256",
              "name": "allocatedAmountBlance",
              "type": "uint256"
            },
            {
              "internalType": "bool",
              "name": "allocationStatus",
              "type": "bool"
            }
          ],
          "internalType": "struct FXAuction.FxBidForm[]",
          "name": "bids",
          "type": "tuple[]"
        }
      ],
      "name": "allocateFunds",
      "outputs": [],
      "stateMutability": "nonpayable",
      "type": "function"
    },
    {
      "inputs": [
        {
          "internalType": "uint256",
          "name": "fxBidFormListingId",
          "type": "uint256"
        },
        {
          "internalType": "uint256",
          "name": "auctionId",
          "type": "uint256"
        }
      ],
      "name": "findPrimaryBidById",
      "outputs": [
        {
          "components": [
            {
              "internalType": "uint256",
              "name": "fxBidFormListingId",
              "type": "uint256"
            },
            {
              "internalType": "uint256",
              "name": "auctionId",
              "type": "uint256"
            },
            {
              "internalType": "string",
              "name": "applicantName",
              "type": "string"
            },
            {
              "internalType": "string",
              "name": "dateOfIncorporation",
              "type": "string"
            },
            {
              "internalType": "string",
              "name": "tradingCommencementDate",
              "type": "string"
            },
            {
              "internalType": "string",
              "name": "identificationNumber",
              "type": "string"
            },
            {
              "internalType": "string",
              "name": "categoryOfBidder",
              "type": "string"
            },
            {
              "internalType": "string",
              "name": "physicalAddress",
              "type": "string"
            },
            {
              "internalType": "string",
              "name": "emailAddress",
              "type": "string"
            },
            {
              "internalType": "string",
              "name": "contactNumber",
              "type": "string"
            },
            {
              "internalType": "string",
              "name": "applicantBank",
              "type": "string"
            },
            {
              "internalType": "string",
              "name": "auctionRef",
              "type": "string"
            },
            {
              "internalType": "string",
              "name": "priorExhangeControlNumber",
              "type": "string"
            },
            {
              "internalType": "uint256",
              "name": "date",
              "type": "uint256"
            },
            {
              "internalType": "string",
              "name": "economicSector",
              "type": "string"
            },
            {
              "internalType": "string",
              "name": "purposeOfFunds",
              "type": "string"
            },
            {
              "internalType": "string",
              "name": "descriptionOfGoods",
              "type": "string"
            },
            {
              "internalType": "string",
              "name": "ultimateBeneficiary",
              "type": "string"
            },
            {
              "internalType": "uint256",
              "name": "bidAmountUSD",
              "type": "uint256"
            },
            {
              "internalType": "uint256",
              "name": "bidExchangeRate",
              "type": "uint256"
            },
            {
              "internalType": "uint256",
              "name": "zwlEquivalent",
              "type": "uint256"
            },
            {
              "internalType": "uint256",
              "name": "currentBalanceZWL",
              "type": "uint256"
            },
            {
              "internalType": "uint256",
              "name": "currentNostroBalanceUSD",
              "type": "uint256"
            },
            {
              "internalType": "uint256",
              "name": "allocatedAmountBlance",
              "type": "uint256"
            },
            {
              "internalType": "bool",
              "name": "allocationStatus",
              "type": "bool"
            }
          ],
          "internalType": "struct FXAuction.FxBidForm",
          "name": "",
          "type": "tuple"
        }
      ],
      "stateMutability": "view",
      "type": "function",
      "constant": true
    }
  ],
  "bytecode": "0x608060405234801561001057600080fd5b50612ed8806100206000396000f3fe608060405234801561001057600080fd5b506004361061007d5760003560e01c8063460154c01161005b578063460154c0146100bd578063cbd2bdfd146100d3578063d9aadbcc146100e8578063daf62c2a1461010857600080fd5b80630a24bf82146100825780632fada74b146100975780633c495e4e146100aa575b600080fd5b61009561009036600461250c565b610128565b005b6100956100a53660046125cf565b61039a565b6100956100b836600461260c565b6108f3565b6000546040519081526020015b60405180910390f35b6100db6109d8565b6040516100ca919061271f565b6100fb6100f6366004612808565b610ca5565b6040516100ca9190612a39565b61011b610116366004612a53565b6115df565b6040516100ca9190612a6c565b60008160008151811061013d5761013d612ace565b602002602001015160200151905060005b82518161ffff16101561039557600060018261ffff1685516101709190612afa565b61017a9190612afa565b905083818151811061018e5761018e612ace565b60200260200101516102400151600160008581526020019081526020016000206002015410156101be5750505050565b600060016000858152602001908152602001600020600b0160008684815181106101ea576101ea612ace565b6020026020010151600001518152602001908152602001600020905084828151811061021857610218612ace565b60200260200101516102400151816017018190555084828151811061023f5761023f612ace565b60200260200101516102400151600160008681526020019081526020016000206002015461026d9190612afa565b600085815260016020526040902060020155845185908390811061029357610293612ace565b6020026020010151610280015160016000868152602001908152602001600020600301546102c19190612b11565b60008581526001602081905260408220600381019390935587519092600b0191908890869081106102f4576102f4612ace565b602002602001015160000151815260200190815260200160002060180160006101000a81548160ff0219169083151502179055507f01eecf25e21f423185c63e3c9517a8789fc7bc85862c900028004bcff0a2bed4816040516103579190612c05565b60405180910390a1600084815260016020819052604082200180549161037c83612e09565b919050555050508061038d81612e24565b91505061014e565b505050565b6000816102400151116103f45760405162461bcd60e51b815260206004820152601c60248201527f5072696365206d7573742062652067726561746572207468616e20300000000060448201526064015b60405180910390fd5b60208082015160009081526001909152604090206009015461026082015110156104605760405162461bcd60e51b815260206004820152601a60248201527f50726963652062656c6f77207374617274696e6720707269636500000000000060448201526064016103eb565b6020808201516000908152600190915260409020600a015461026082015111156104cc5760405162461bcd60e51b815260206004820152601960248201527f50726963652061626f766520686967686573742070726963650000000000000060448201526064016103eb565b806102a0015181610280015111156105315760405162461bcd60e51b815260206004820152602260248201527f496e73756666696369656e742066756e647320696e2062616e6b206163636f756044820152611b9d60f21b60648201526084016103eb565b806102c0015181610240015110156105a05760405162461bcd60e51b815260206004820152602c60248201527f426964646572206861732073756666696369656e742055534420696e206e6f7360448201526b74726f206163636f756e747360a01b60648201526084016103eb565b6002816102400151101580156105be57506207a12081610240015111155b80156105e35750806102400151614e201080156105e1575061c350816102400151105b155b6106275760405162461bcd60e51b8152602060048201526015602482015274109a5908185b5bdd5b9d081a5cc81a5b9d985b1a59605a1b60448201526064016103eb565b6020808201805160009081526001808452604080832060049081015487526102e0870184905261030087018490528451845282865281842085518552828520909101548452600b018552918290208551815592519083015583015180518493610697926002850192910190611fc2565b50606082015180516106b3916003840191602090910190611fc2565b50608082015180516106cf916004840191602090910190611fc2565b5060a082015180516106eb916005840191602090910190611fc2565b5060c08201518051610707916006840191602090910190611fc2565b5060e08201518051610723916007840191602090910190611fc2565b506101008201518051610740916008840191602090910190611fc2565b50610120820151805161075d916009840191602090910190611fc2565b50610140820151805161077a91600a840191602090910190611fc2565b50610160820151805161079791600b840191602090910190611fc2565b5061018082015180516107b491600c840191602090910190611fc2565b506101a0820151600d8201556101c082015180516107dc91600e840191602090910190611fc2565b506101e082015180516107f991600f840191602090910190611fc2565b506102008201518051610816916010840191602090910190611fc2565b506102208201518051610833916011840191602090910190611fc2565b506102408201516012820155610260820151601382015561028082015160148201556102a082015160158201556102c082015160168201556102e08201516017820155610300909101516018909101805460ff191691151591909117905560208181015160009081526001909152604081206004018054916108b483612e09565b91905055507ffaca14019410cc6b5f7493976f3fa90b9a79cff9c4beda733d50dbb44d7407d8816040516108e89190612a39565b60405180910390a150565b60008054808252600160205260408220918061090e83612e09565b9091555081558151600282015560208083015180516109339260058501920190611fc2565b506040820151805161094f916006840191602090910190611fc2565b5060608201516007820181905560808301516008830181905560a08401516009840181905560c0850151600a850181905584546002860154600387015460405192967fa43bf15150b6412f25f6498a3a0ea21ef6058636917297f75e19155fa678c7ca966109cc969395929460058b019460068c01949091612e46565b60405180910390a25050565b6060600080805467ffffffffffffffff8111156109f7576109f7612119565b604051908082528060200260200182016040528015610a8557816020015b610a7260405180610160016040528060008152602001600081526020016000815260200160008152602001600081526020016060815260200160608152602001600081526020016000815260200160008152602001600081525090565b815260200190600190039081610a155790505b50905060005b600054811015610c9e5760408051610160810182526000858152600160208181528483208054855280830154828601526002810154958501959095526003850154606085015260048501546080850152878352526005909201805460a083019190610af590612b29565b80601f0160208091040260200160405190810160405280929190818152602001828054610b2190612b29565b8015610b6e5780601f10610b4357610100808354040283529160200191610b6e565b820191906000526020600020905b815481529060010190602001808311610b5157829003601f168201915b50505050508152602001600160008781526020019081526020016000206006018054610b9990612b29565b80601f0160208091040260200160405190810160405280929190818152602001828054610bc590612b29565b8015610c125780601f10610be757610100808354040283529160200191610c12565b820191906000526020600020905b815481529060010190602001808311610bf557829003601f168201915b50505091835250506000868152600160208181526040808420600781015483870152600881015491860191909152600981015460608601529289905252600a015460809091015283519091508190849086908110610c7257610c72612ace565b6020908102919091010152610c88600185612b11565b9350508080610c9690612e09565b915050610a8b565b5092915050565b610cad612046565b60016000838152602001908152602001600020600b016000848152602001908152602001600020604051806103200160405290816000820154815260200160018201548152602001600282018054610d0490612b29565b80601f0160208091040260200160405190810160405280929190818152602001828054610d3090612b29565b8015610d7d5780601f10610d5257610100808354040283529160200191610d7d565b820191906000526020600020905b815481529060010190602001808311610d6057829003601f168201915b50505050508152602001600382018054610d9690612b29565b80601f0160208091040260200160405190810160405280929190818152602001828054610dc290612b29565b8015610e0f5780601f10610de457610100808354040283529160200191610e0f565b820191906000526020600020905b815481529060010190602001808311610df257829003601f168201915b50505050508152602001600482018054610e2890612b29565b80601f0160208091040260200160405190810160405280929190818152602001828054610e5490612b29565b8015610ea15780601f10610e7657610100808354040283529160200191610ea1565b820191906000526020600020905b815481529060010190602001808311610e8457829003601f168201915b50505050508152602001600582018054610eba90612b29565b80601f0160208091040260200160405190810160405280929190818152602001828054610ee690612b29565b8015610f335780601f10610f0857610100808354040283529160200191610f33565b820191906000526020600020905b815481529060010190602001808311610f1657829003601f168201915b50505050508152602001600682018054610f4c90612b29565b80601f0160208091040260200160405190810160405280929190818152602001828054610f7890612b29565b8015610fc55780601f10610f9a57610100808354040283529160200191610fc5565b820191906000526020600020905b815481529060010190602001808311610fa857829003601f168201915b50505050508152602001600782018054610fde90612b29565b80601f016020809104026020016040519081016040528092919081815260200182805461100a90612b29565b80156110575780601f1061102c57610100808354040283529160200191611057565b820191906000526020600020905b81548152906001019060200180831161103a57829003601f168201915b5050505050815260200160088201805461107090612b29565b80601f016020809104026020016040519081016040528092919081815260200182805461109c90612b29565b80156110e95780601f106110be576101008083540402835291602001916110e9565b820191906000526020600020905b8154815290600101906020018083116110cc57829003601f168201915b5050505050815260200160098201805461110290612b29565b80601f016020809104026020016040519081016040528092919081815260200182805461112e90612b29565b801561117b5780601f106111505761010080835404028352916020019161117b565b820191906000526020600020905b81548152906001019060200180831161115e57829003601f168201915b50505050508152602001600a8201805461119490612b29565b80601f01602080910402602001604051908101604052809291908181526020018280546111c090612b29565b801561120d5780601f106111e25761010080835404028352916020019161120d565b820191906000526020600020905b8154815290600101906020018083116111f057829003601f168201915b50505050508152602001600b8201805461122690612b29565b80601f016020809104026020016040519081016040528092919081815260200182805461125290612b29565b801561129f5780601f106112745761010080835404028352916020019161129f565b820191906000526020600020905b81548152906001019060200180831161128257829003601f168201915b50505050508152602001600c820180546112b890612b29565b80601f01602080910402602001604051908101604052809291908181526020018280546112e490612b29565b80156113315780601f1061130657610100808354040283529160200191611331565b820191906000526020600020905b81548152906001019060200180831161131457829003601f168201915b50505050508152602001600d8201548152602001600e8201805461135490612b29565b80601f016020809104026020016040519081016040528092919081815260200182805461138090612b29565b80156113cd5780601f106113a2576101008083540402835291602001916113cd565b820191906000526020600020905b8154815290600101906020018083116113b057829003601f168201915b50505050508152602001600f820180546113e690612b29565b80601f016020809104026020016040519081016040528092919081815260200182805461141290612b29565b801561145f5780601f106114345761010080835404028352916020019161145f565b820191906000526020600020905b81548152906001019060200180831161144257829003601f168201915b5050505050815260200160108201805461147890612b29565b80601f01602080910402602001604051908101604052809291908181526020018280546114a490612b29565b80156114f15780601f106114c6576101008083540402835291602001916114f1565b820191906000526020600020905b8154815290600101906020018083116114d457829003601f168201915b5050505050815260200160118201805461150a90612b29565b80601f016020809104026020016040519081016040528092919081815260200182805461153690612b29565b80156115835780601f1061155857610100808354040283529160200191611583565b820191906000526020600020905b81548152906001019060200180831161156657829003601f168201915b505050918352505060128201546020820152601382015460408201526014820154606082015260158201546080820152601682015460a0820152601782015460c082015260189091015460ff16151560e0909101529392505050565b600081815260016020526040812060040154606091808267ffffffffffffffff81111561160e5761160e612119565b60405190808252806020026020018201604052801561164757816020015b611634612046565b81526020019060019003908161162c5790505b50905060005b83811015611fb9576000868152600160208181526040808420858552600b0182529283902083516103208101855281548152928101549183019190915260028101805485949293928492908401916116a490612b29565b80601f01602080910402602001604051908101604052809291908181526020018280546116d090612b29565b801561171d5780601f106116f25761010080835404028352916020019161171d565b820191906000526020600020905b81548152906001019060200180831161170057829003601f168201915b5050505050815260200160038201805461173690612b29565b80601f016020809104026020016040519081016040528092919081815260200182805461176290612b29565b80156117af5780601f10611784576101008083540402835291602001916117af565b820191906000526020600020905b81548152906001019060200180831161179257829003601f168201915b505050505081526020016004820180546117c890612b29565b80601f01602080910402602001604051908101604052809291908181526020018280546117f490612b29565b80156118415780601f1061181657610100808354040283529160200191611841565b820191906000526020600020905b81548152906001019060200180831161182457829003601f168201915b5050505050815260200160058201805461185a90612b29565b80601f016020809104026020016040519081016040528092919081815260200182805461188690612b29565b80156118d35780601f106118a8576101008083540402835291602001916118d3565b820191906000526020600020905b8154815290600101906020018083116118b657829003601f168201915b505050505081526020016006820180546118ec90612b29565b80601f016020809104026020016040519081016040528092919081815260200182805461191890612b29565b80156119655780601f1061193a57610100808354040283529160200191611965565b820191906000526020600020905b81548152906001019060200180831161194857829003601f168201915b5050505050815260200160078201805461197e90612b29565b80601f01602080910402602001604051908101604052809291908181526020018280546119aa90612b29565b80156119f75780601f106119cc576101008083540402835291602001916119f7565b820191906000526020600020905b8154815290600101906020018083116119da57829003601f168201915b50505050508152602001600882018054611a1090612b29565b80601f0160208091040260200160405190810160405280929190818152602001828054611a3c90612b29565b8015611a895780601f10611a5e57610100808354040283529160200191611a89565b820191906000526020600020905b815481529060010190602001808311611a6c57829003601f168201915b50505050508152602001600982018054611aa290612b29565b80601f0160208091040260200160405190810160405280929190818152602001828054611ace90612b29565b8015611b1b5780601f10611af057610100808354040283529160200191611b1b565b820191906000526020600020905b815481529060010190602001808311611afe57829003601f168201915b50505050508152602001600a82018054611b3490612b29565b80601f0160208091040260200160405190810160405280929190818152602001828054611b6090612b29565b8015611bad5780601f10611b8257610100808354040283529160200191611bad565b820191906000526020600020905b815481529060010190602001808311611b9057829003601f168201915b50505050508152602001600b82018054611bc690612b29565b80601f0160208091040260200160405190810160405280929190818152602001828054611bf290612b29565b8015611c3f5780601f10611c1457610100808354040283529160200191611c3f565b820191906000526020600020905b815481529060010190602001808311611c2257829003601f168201915b50505050508152602001600c82018054611c5890612b29565b80601f0160208091040260200160405190810160405280929190818152602001828054611c8490612b29565b8015611cd15780601f10611ca657610100808354040283529160200191611cd1565b820191906000526020600020905b815481529060010190602001808311611cb457829003601f168201915b50505050508152602001600d8201548152602001600e82018054611cf490612b29565b80601f0160208091040260200160405190810160405280929190818152602001828054611d2090612b29565b8015611d6d5780601f10611d4257610100808354040283529160200191611d6d565b820191906000526020600020905b815481529060010190602001808311611d5057829003601f168201915b50505050508152602001600f82018054611d8690612b29565b80601f0160208091040260200160405190810160405280929190818152602001828054611db290612b29565b8015611dff5780601f10611dd457610100808354040283529160200191611dff565b820191906000526020600020905b815481529060010190602001808311611de257829003601f168201915b50505050508152602001601082018054611e1890612b29565b80601f0160208091040260200160405190810160405280929190818152602001828054611e4490612b29565b8015611e915780601f10611e6657610100808354040283529160200191611e91565b820191906000526020600020905b815481529060010190602001808311611e7457829003601f168201915b50505050508152602001601182018054611eaa90612b29565b80601f0160208091040260200160405190810160405280929190818152602001828054611ed690612b29565b8015611f235780601f10611ef857610100808354040283529160200191611f23565b820191906000526020600020905b815481529060010190602001808311611f0657829003601f168201915b505050918352505060128201546020820152601382015460408201526014820154606082015260158201546080820152601682015460a0820152601782015460c082015260189091015460ff16151560e0909101528451859087908110611f8c57611f8c612ace565b6020908102919091010152611fa2600186612b11565b945050508080611fb190612e09565b91505061164d565b50949350505050565b828054611fce90612b29565b90600052602060002090601f016020900481019282611ff05760008555612036565b82601f1061200957805160ff1916838001178555612036565b82800160010185558215612036579182015b8281111561203657825182559160200191906001019061201b565b50612042929150612104565b5090565b6040518061032001604052806000815260200160008152602001606081526020016060815260200160608152602001606081526020016060815260200160608152602001606081526020016060815260200160608152602001606081526020016060815260200160008152602001606081526020016060815260200160608152602001606081526020016000815260200160008152602001600081526020016000815260200160008152602001600081526020016000151581525090565b5b808211156120425760008155600101612105565b634e487b7160e01b600052604160045260246000fd5b604051610320810167ffffffffffffffff8111828210171561215357612153612119565b60405290565b60405160e0810167ffffffffffffffff8111828210171561215357612153612119565b604051601f8201601f1916810167ffffffffffffffff811182821017156121a5576121a5612119565b604052919050565b600082601f8301126121be57600080fd5b813567ffffffffffffffff8111156121d8576121d8612119565b6121eb601f8201601f191660200161217c565b81815284602083860101111561220057600080fd5b816020850160208301376000918101602001919091529392505050565b8035801515811461222d57600080fd5b919050565b6000610320828403121561224557600080fd5b61224d61212f565b90508135815260208201356020820152604082013567ffffffffffffffff8082111561227857600080fd5b612284858386016121ad565b6040840152606084013591508082111561229d57600080fd5b6122a9858386016121ad565b606084015260808401359150808211156122c257600080fd5b6122ce858386016121ad565b608084015260a08401359150808211156122e757600080fd5b6122f3858386016121ad565b60a084015260c084013591508082111561230c57600080fd5b612318858386016121ad565b60c084015260e084013591508082111561233157600080fd5b61233d858386016121ad565b60e08401526101009150818401358181111561235857600080fd5b612364868287016121ad565b83850152506101209150818401358181111561237f57600080fd5b61238b868287016121ad565b8385015250610140915081840135818111156123a657600080fd5b6123b2868287016121ad565b8385015250610160915081840135818111156123cd57600080fd5b6123d9868287016121ad565b8385015250610180915081840135818111156123f457600080fd5b612400868287016121ad565b83850152506101a0915081840135828401526101c09150818401358181111561242857600080fd5b612434868287016121ad565b83850152506101e09150818401358181111561244f57600080fd5b61245b868287016121ad565b83850152506102009150818401358181111561247657600080fd5b612482868287016121ad565b83850152506102209150818401358181111561249d57600080fd5b6124a9868287016121ad565b9284019290925250506102408281013590820152610260808301359082015261028080830135908201526102a080830135908201526102c080830135908201526102e0808301359082015261030061250281840161221d565b9082015292915050565b6000602080838503121561251f57600080fd5b823567ffffffffffffffff8082111561253757600080fd5b818501915085601f83011261254b57600080fd5b81358181111561255d5761255d612119565b8060051b61256c85820161217c565b918252838101850191858101908984111561258657600080fd5b86860192505b838310156125c2578235858111156125a45760008081fd5b6125b28b89838a0101612232565b835250918601919086019061258c565b9998505050505050505050565b6000602082840312156125e157600080fd5b813567ffffffffffffffff8111156125f857600080fd5b61260484828501612232565b949350505050565b60006020828403121561261e57600080fd5b813567ffffffffffffffff8082111561263657600080fd5b9083019060e0828603121561264a57600080fd5b612652612159565b8235815260208301358281111561266857600080fd5b612674878286016121ad565b60208301525060408301358281111561268c57600080fd5b612698878286016121ad565b604083015250606083013560608201526080830135608082015260a083013560a082015260c083013560c082015280935050505092915050565b6000815180845260005b818110156126f8576020818501810151868301820152016126dc565b8181111561270a576000602083870101525b50601f01601f19169290920160200192915050565b60006020808301818452808551808352604092508286019150828160051b87010184880160005b838110156127fa57603f19898403018552815161016081518552888201518986015287820151888601526060808301518187015250608080830151818701525060a080830151828288015261279d838801826126d2565b9250505060c080830151868303828801526127b883826126d2565b60e08581015190890152610100808601519089015261012080860151908901526101409485015194909701939093525050509386019390860190600101612746565b509098975050505050505050565b6000806040838503121561281b57600080fd5b50508035926020909101359150565b600061032082518452602083015160208501526040830151816040860152612854828601826126d2565b9150506060830151848203606086015261286e82826126d2565b9150506080830151848203608086015261288882826126d2565b91505060a083015184820360a08601526128a282826126d2565b91505060c083015184820360c08601526128bc82826126d2565b91505060e083015184820360e08601526128d682826126d2565b91505061010080840151858303828701526128f183826126d2565b92505050610120808401518583038287015261290d83826126d2565b92505050610140808401518583038287015261292983826126d2565b92505050610160808401518583038287015261294583826126d2565b92505050610180808401518583038287015261296183826126d2565b925050506101a08084015181860152506101c0808401518583038287015261298983826126d2565b925050506101e080840151858303828701526129a583826126d2565b9250505061020080840151858303828701526129c183826126d2565b9250505061022080840151858303828701526129dd83826126d2565b6102408681015190880152610260808701519088015261028080870151908801526102a080870151908801526102c080870151908801526102e08087015190880152610300958601511515959096019490945250929392505050565b602081526000612a4c602083018461282a565b9392505050565b600060208284031215612a6557600080fd5b5035919050565b6000602080830181845280855180835260408601915060408160051b870101925083870160005b82811015612ac157603f19888603018452612aaf85835161282a565b94509285019290850190600101612a93565b5092979650505050505050565b634e487b7160e01b600052603260045260246000fd5b634e487b7160e01b600052601160045260246000fd5b600082821015612b0c57612b0c612ae4565b500390565b60008219821115612b2457612b24612ae4565b500190565b600181811c90821680612b3d57607f821691505b60208210811415612b5e57634e487b7160e01b600052602260045260246000fd5b50919050565b8054600090600181811c9080831680612b7e57607f831692505b6020808410821415612ba057634e487b7160e01b600052602260045260246000fd5b838852818015612bb75760018114612bcb57612bf9565b60ff19861689830152604089019650612bf9565b876000528160002060005b86811015612bf15781548b8201850152908501908301612bd6565b8a0183019750505b50505050505092915050565b6020815281546020820152600182015460408201526000610320806060840152612c36610340840160028601612b64565b601f1980858303016080860152612c508260038801612b64565b9150808583030160a0860152612c698260048801612b64565b9150808583030160c0860152612c828260058801612b64565b9150808583030160e0860152612c9b8260068801612b64565b91508085830301610100860152612cb58260078801612b64565b91508085830301610120860152612ccf8260088801612b64565b91508085830301610140860152612ce98260098801612b64565b91508085830301610160860152612d0382600a8801612b64565b91508085830301610180860152612d1d82600b8801612b64565b915080858303016101a0860152612d3782600c8801612b64565b9150600d8601546101c086015280858303016101e0860152612d5c82600e8801612b64565b91508085830301610200860152612d7682600f8801612b64565b91508085830301610220860152612d908260108801612b64565b9150808583030161024086015250612dab8160118701612b64565b90506012850154610260850152601385015461028085015260148501546102a085015260158501546102c085015260168501546102e08501526017850154610300850152612dfd601886015460ff1690565b80151585840152611fb9565b6000600019821415612e1d57612e1d612ae4565b5060010190565b600061ffff80831681811415612e3c57612e3c612ae4565b6001019392505050565b60006101008a8352896020840152806040840152612e668184018a612b64565b90508281036060840152612e7a8189612b64565b9150508560808301528460a08301528360c08301528260e0830152999850505050505050505056fea264697066735822122011f05f78d7a9e18bfa62a07433b50a606a79e0e1ff5c325fff43cb5e257bbf3e64736f6c634300080c0033",
  "immutableReferences": {},
  "source": "// SPDX-License-Identifier: MIT\npragma solidity >=0.4.22 <0.9.0;\n\n\ncontract FXAuction {\n\n    constructor() {\n    }\n\n    uint auctionIdCount;\n\n    mapping(uint256 => Auction) auctionData;  //maps the _bidListingId to the bid\n\n\n    struct Auction {\n        uint auctionId;\n        uint _bidsAllocatedFunds;  //Keeps track of how many have been issued\n        uint rbzUSDBalance;\n        uint rbzZWLBalance;\n        uint _bidListingId;   //Uniquely identifies the bid increments\n        string auctionTitle;\n        string auctionType;\n        uint startTime;\n        uint endTime;\n        uint lowestBidPrice;\n        uint highestBidPrice;\n        mapping(uint256 => FxBidForm) primaryBidData;  //maps the _bidListingId to the bid\n    }\n\n\n    struct GetAuction {\n        uint auctionId;\n        uint _bidsAllocatedFunds;  //Keeps track of how many have been issued\n        uint rbzUSDBalance;\n        uint rbzZWLBalance;\n        uint _bidListingId;   //Uniquely identifies the bid increments\n        string auctionTitle;\n        string auctionType;\n        uint startTime;\n        uint endTime;\n        uint lowestBidPrice;\n        uint highestBidPrice;\n    }\n\n\n    struct SubmitAuction {\n        uint rbzUSDBalance;\n        string auctionTitle;\n        string auctionType;\n        uint startTime;\n        uint endTime;\n        uint lowestBidPrice;\n        uint highestBidPrice;\n    }\n\n\n    struct FxBidForm {\n        uint fxBidFormListingId;  //identifies a bid\n        uint auctionId;\n\n        string applicantName;\n        string dateOfIncorporation;\n        string tradingCommencementDate;\n        string identificationNumber;\n        string categoryOfBidder; //Category\n        string physicalAddress;\n        string emailAddress;\n        string contactNumber;\n        string applicantBank;\n        string auctionRef;\n        string priorExhangeControlNumber;\n        uint date;\n\n\n        string economicSector;\n        string purposeOfFunds;\n        string descriptionOfGoods;\n        string ultimateBeneficiary;\n        uint bidAmountUSD;\n        uint bidExchangeRate;\n        uint zwlEquivalent;\n        uint currentBalanceZWL;\n        uint currentNostroBalanceUSD;\n\n        uint allocatedAmountBlance;\n        bool allocationStatus;\n    }\n\n\n    event BidSubmitted (\n        FxBidForm bid\n    );\n\n\n    event AuctionCreated (\n        uint indexed auctionId,\n        uint rbzUSDBalance,\n        uint rbzZWLBalance,\n        string auctionTitle,\n        string auctionType,\n        uint startTime,\n        uint endTime,\n        uint lowestBidPrice,\n        uint highestBidPrice\n    );\n\n\n    event BidAllocatedFunds (\n        FxBidForm bid\n    );\n\n\n    function submitAuction(SubmitAuction memory newAuction) public {\n\n        Auction storage a = auctionData[auctionIdCount];\n        a.auctionId = auctionIdCount++;\n        a.rbzUSDBalance = newAuction.rbzUSDBalance;\n        a.auctionTitle = newAuction.auctionTitle;\n        a.auctionType = newAuction.auctionType;\n        a.startTime = newAuction.startTime;\n        a.endTime = newAuction.endTime;\n        a.lowestBidPrice = newAuction.lowestBidPrice;\n        a.highestBidPrice = newAuction.highestBidPrice;\n\n        emit AuctionCreated (\n            a.auctionId,\n            a.rbzUSDBalance,\n            a.rbzZWLBalance,\n            a.auctionTitle,\n            a.auctionType,\n            a.startTime,\n            a.endTime,\n            a.lowestBidPrice,\n            a.highestBidPrice\n        );\n    }\n\n    function submitBid(FxBidForm memory fxBidForm) \n        public {\n        \n        require(fxBidForm.bidAmountUSD > 0, \"Price must be greater than 0\");\n        require(fxBidForm.bidExchangeRate >= auctionData[fxBidForm.auctionId].lowestBidPrice, \"Price below starting price\");    \n        require(fxBidForm.bidExchangeRate <= auctionData[fxBidForm.auctionId].highestBidPrice, \"Price above highest price\");\n        require(fxBidForm.zwlEquivalent <= fxBidForm.currentBalanceZWL, \"Insufficient funds in bank account\");     \n        require(fxBidForm.bidAmountUSD >= fxBidForm.currentNostroBalanceUSD, \"Bidder has sufficient USD in nostro accounts\");  \n        require(fxBidForm.bidAmountUSD >= 2\n              && fxBidForm.bidAmountUSD <= 500000\n              && !((20000 < fxBidForm.bidAmountUSD) && (fxBidForm.bidAmountUSD < 50000)), \"Bid amount is invalid\");  \n\n\n        fxBidForm.fxBidFormListingId = auctionData[fxBidForm.auctionId]._bidListingId;  //Generate a bid number\n\n         // mapping the new primary bid to our generated bif number\n\n         fxBidForm.allocatedAmountBlance = 0;\n         fxBidForm.allocationStatus = false;\n\n        auctionData[fxBidForm.auctionId].primaryBidData[auctionData[fxBidForm.auctionId]._bidListingId] = fxBidForm;\n\n        auctionData[fxBidForm.auctionId]._bidListingId++;\n\n        emit BidSubmitted (\n        fxBidForm\n    );\n\n\n    }\n\n    function getAllAuctionsCount() public view returns(uint){\n        return auctionIdCount;\n    }\n\n    function getAllPrimaryBids(uint auctionId) public view returns(FxBidForm[] memory) {\n        uint256 numberOfPrimaryBids = auctionData[auctionId]._bidListingId;\n        uint256 currentIndex = 0;\n\n        FxBidForm[] memory primaryActiveBids = new FxBidForm[](numberOfPrimaryBids);\n        \n        for(uint256 i = 0; i < numberOfPrimaryBids; i++) {\n                uint256 currentId = i;\n                FxBidForm storage currentItem = auctionData[auctionId].primaryBidData[currentId];\n                primaryActiveBids[currentIndex] = currentItem;\n                currentIndex += 1;\n        }\n\n        return primaryActiveBids;\n    }\n\n    function getAllAuctions() public view returns(GetAuction[] memory) {\n        uint256 currentIndex = 0;\n\n        GetAuction[] memory allAuctions = new GetAuction[](auctionIdCount);\n        \n        for(uint256 i = 0; i < auctionIdCount; i++) {\n                GetAuction memory currentItem = GetAuction(\n                    auctionData[currentIndex].auctionId,\n                    auctionData[currentIndex]._bidsAllocatedFunds, \n                    auctionData[currentIndex].rbzUSDBalance,\n                    auctionData[currentIndex].rbzZWLBalance,\n                    auctionData[currentIndex]._bidListingId,\n                    auctionData[currentIndex].auctionTitle,\n                    auctionData[currentIndex].auctionType,\n                    auctionData[currentIndex].startTime,\n                    auctionData[currentIndex].endTime,\n                    auctionData[currentIndex].lowestBidPrice,\n                    auctionData[currentIndex].highestBidPrice\n                    );\n                allAuctions[currentIndex] = currentItem;\n                currentIndex += 1;\n        }\n\n        return allAuctions;\n    }\n\n\n    //Allocate funds passinf the sortedPrimaryBids\n    function allocateFunds(\n        FxBidForm[] memory bids  //Array of primaryBids\n    ) public {\n\n        uint auctionId = bids[0].auctionId;\n        for (uint16 i = 0; i < bids.length; i++) {\n            uint index = bids.length -i-1; \n            if(auctionData[auctionId].rbzUSDBalance  < bids[index].bidAmountUSD){\n                break;\n            }else{\n                FxBidForm storage bid = auctionData[auctionId].primaryBidData[bids[index].fxBidFormListingId];\n                bid.allocatedAmountBlance = bids[index].bidAmountUSD;\n                auctionData[auctionId].rbzUSDBalance = auctionData[auctionId].rbzUSDBalance - bids[index].bidAmountUSD;\n                auctionData[auctionId].rbzZWLBalance = auctionData[auctionId].rbzZWLBalance + bids[index].zwlEquivalent;\n\n                auctionData[auctionId].primaryBidData[bids[index].fxBidFormListingId].allocationStatus = true;\n\n                emit BidAllocatedFunds (\n                    bid\n                );\n\n                auctionData[auctionId]._bidsAllocatedFunds++;\n\n            }\n        }\n\n    }\n\n    function findPrimaryBidById(uint256 fxBidFormListingId, uint auctionId) public view returns(FxBidForm memory) {\n        return auctionData[auctionId].primaryBidData[fxBidFormListingId];\n    }\n}",
  "sourcePath": "/Users/tafarambano/Desktop/test-truffle/contracts/FxAuction.sol",
  "compiler": {
    "name": "solc",
    "version": "0.8.12+commit.f00d7308.Emscripten.clang"
  },
  "schemaVersion": "3.4.5",
  "updatedAt": "2022-06-08T03:36:41.093Z",
  "networkType": "ethereum",
  "devdoc": {
    "kind": "dev",
    "methods": {},
    "version": 1
  },
  "userdoc": {
    "kind": "user",
    "methods": {},
    "version": 1
  }
}